:020000040800F2
:10000000C8900020DD010008474000087B3D000843
:1000100045400008A713000825550008000000000F
:10002000000000000000000000000000854D0008F6
:10003000891400080000000049400008874D0008AE
:10004000F7010008F7010008F7010008F7010008B0
:10005000F7010008F7010008F7010008F7010008A0
:10006000F7010008F7010008F7010008F701000890
:10007000A9130008F7010008B5130008F7010008EC
:10008000F7010008F701000845110008F701000812
:10009000F7010008F7010008F7010008F701000860
:1000A000854E00089D4E0008914E0008F70100089B
:1000B000F7010008F7010008F7010008F701000840
:1000C000F7010008F7010008F7010008F701000830
:1000D000F7010008F7010008F7010008F701000820
:1000E000F7010008F7010008F7010008F701000810
:1000F000F7010008F7010008F7010008F701000800
:10010000F70100080D410008F7010008F701000899
:10011000F7010008F7010008F7010008F7010008DF
:10012000C1130008F7010008F7010008CD1300080B
:10013000F7010008F7010008F7010008F7010008BF
:10014000F7010008F7010008F7010008F7010008AF
:10015000F7010008D9130008F7010008F7010008AB
:10016000F7010008F7010008F7010008F70100088F
:10017000F7010008F7010008F7010008000000007F
:10018000F7010008F7010008DD4F0008F70100083B
:10019000F7010008F7010008F7010008F70100085F
:1001A000F7010008F7010008F7010008F70100084F
:1001B000F7010008F7010008F7010008F70100083F
:1001C000F7010008F7010008DFF80CD000F08CF808
:1001D00000480047C9660008C890002006488047CC
:1001E00006480047FEE7FEE7FEE7FEE7FEE7FEE71C
:1001F000FEE7FEE7FEE7FEE7314E0008C901000812
:100200002DE9F05F0546002092469B46884606464B
:10021000814640241BE0284641464746224600F0DE
:1002200053F853465A46C01A914110D31146184606
:10023000224600F03AF82D1A67EB01084F46224695
:100240000120002100F031F817EB00094E41201E7B
:10025000A4F10104DFDC484631462A464346BDE8A6
:10026000F09F40EA01039B0703D009E008C9121F71
:1002700008C0042AFAD203E011F8013B00F8013B60
:10028000521EF9D27047D2B201E000F8012B491E8C
:10029000FBD270470022F6E710B513460A46044623
:1002A0001946FFF7F0FF204610BD202A04DB203A54
:1002B00000FA02F1002070479140C2F1200320FAB9
:1002C00003F3194390407047202A04DB203A21FAB7
:1002D00002F00021704721FA02F3D040C2F120025F
:1002E0009140084319467047064C074D06E0E06808
:1002F00040F0010394E8070098471034AC42F6D36D
:10030000FFF766FF90990008B0990008B0B5002982
:1003100021D0002302EB430C32F813E0BCF802C0FA
:1003200002332EF0030E2CF0030C50F80E4050F860
:100330000C508B4240F80E5000EB0E0540F80C407C
:1003400000EB0C04D5F804C0D4F804E0C5F804E0D0
:10035000C4F804C0DED3B0BD2DE9F04104881646D0
:100360000746012A98460D460CD1E4B3281D2146C4
:1003700090ED000AB1EE400A013980ED000A00F16B
:100380000800F5D1FF2C0CDDB4F5806F10DBB4F55F
:10039000805F22D0B4F5006F11D0B4F5806F17D014
:1003A00021E03F2C10DC102C12D0202C07D01AE0BA
:1003B000B4F5807F03D0B4F5007F0ED013E038464B
:1003C000294600F0F7F80EE0402C06D0802C0AD128
:1003D0003846294600F02EF805E07A6801232846C1
:1003E000214600F0D5FBB8F1000F04D0B9892846AA
:1003F000BA68FFF78BFF012E1AD100EE104A002CCD
:10040000B8EE400A14D0B7EE001A81EE000A00BF21
:1004100095ED001A95ED012A20EE011A013C20EE1F
:10042000422A85ED001A85ED012A05F10805EFD174
:10043000BDE8F0812DE9F0472DED068B038880465D
:100440000020D8F80420B0EBD30F084601EB830A54
:100450004FEA530900F09E80D9080AEB890C00EBA3
:10046000890E4C42002700BFC3190AEB070593ED24
:10047000000A95ED004A30EE048A0EEB07010CEB02
:10048000070630EE440A93ED011A93ED022A93ED2C
:10049000033A95ED015A95ED026A95ED037AD1ED97
:1004A000000AD1ED011AD1ED022AD1ED033AD6EDC1
:1004B000004AD6ED015AD6ED026AD6ED037A31EE46
:1004C000059A83ED008A32EE06AA013433EE078ADC
:1004D00083ED019A30EEA49A83ED02AA31EEA5AA2B
:1004E00083ED038A32EEA68A33EEA74A81ED009AA5
:1004F00031EE451A81ED01AA81ED028A02EB070374
:1005000081ED034A34EEE05AD3ED000A35EEE14ABC
:1005100007F1100761EE201AD3ED014A21EE241AEB
:1005200040EE641A65EE245A64EE244A00EE201A66
:1005300044EE605A45EE204A32EE460A85ED001A36
:1005400033EE471AC5ED011A36EEE22AC6ED005A1F
:1005500037EEE33AC6ED014A93ED034A93ED026AA2
:1005600021EE045A21EE061A22EE047A63EE040A02
:1005700000EE065A00EE441A03EE467A42EE060AF0
:1005800085ED025A85ED031A86ED027AC6ED030A5F
:100590007FF46AAF0223494600F0FAFAD8F8042043
:1005A000022350464946BDEC068BBDE8F04700F0FB
:1005B000EFBA00002DE9F04F81B02DED0C8B90B01B
:1005C0008446008891ED000A420801EB820404EBA6
:1005D000820591ED011A95ED002A95ED013A30EE74
:1005E000024A0F4630EE420A05EB820631EE032A3C
:1005F000910031EE431A0F9194ED003A94ED015AB7
:1006000030EE056A810871EE430A009174EE432AC8
:100610006FF0010172EE453A01EB900A30EE450AA7
:10062000D00034EE034A6FF0070832EE052A0E9030
:1006300031EE031A02EB420196ED007AD6ED011A73
:1006400036EE616A08EB021070EE870A4FEA810904
:1006500072EEC72A0C9073EEE13A059730EE210A4C
:1006600008EB810334EE073A6FF0030132EE212AE2
:10067000029431EE471A01EBC20E87ED003A4FF0BB
:10068000000B87ED012A002784ED006AA7EB5A0AC8
:10069000C4ED010A01EB8204C5ED002A0020C5ED7E
:1006A000013A86ED000A86ED011ADCF80410039584
:1006B0000196CDF810C006910D90C1E0C518CDF897
:1006C000249000EB0409CDF81CA099ED006A95ED8B
:1006D000017A76EE070A00EB0E01D1ED002AF24610
:1006E000DDF830E070EEA23A089400EB0E0436EE2E
:1006F000476AD4ED015A73EEA53A0F9859ED011AE5
:10070000D5ED004A71EEA46A083051ED017A94EDFE
:10071000008AC9ED003A71EEE41A51ED013A76EE25
:10072000A33AAEF1080E94ED007A32EEE59AAAF102
:10073000080A33EE877A083B76EE673A31EE89BADB
:1007400009ED017A33EE887ADDF82490D6ED023A8D
:10075000D6ED034A25EE24AA0F9025EE235A0E98D3
:1007600027EE24CA08302BEE24DA0E9004EE23AADA
:100770000D9804EE645A183030EEE24A0D9076EE91
:10078000E70A82ED02AA0BEE63CA82ED035A07EE76
:1007900023DA09F1080934EE654A70EEC80A81EDE2
:1007A00000CA01ED01DA97ED045A97ED057A63EE80
:1007B000072A0B9F23EE053A083760EE873A64EE6E
:1007C000074A42EE052A02EE473A54EE453A40EE19
:1007D000C54ACCED022A38EE674A8CED033AC5EDE6
:1007E000013A39EE615AC5ED004A9BED062A21EE29
:1007F000027A34EE464A9BED073A21EE031ADDF801
:1008000028B000EE437ACDF830E024EE036AD646F5
:1008100025EE033ADDF81CA000EE021A0BF1100BD6
:1008200005EE426A0AF1010A04EE023A88ED021A64
:1008300088ED037A84ED016A84ED003A089C083C57
:100840000598BAF1000F0E9A00EB070100EB020CBD
:100850000F9A91ED020A9CED022A30EE026A0244E0
:1008600030EE420A00EB090891ED031A9CED033AC1
:1008700092ED032A31EE037A069D31EE431A0B976F
:1008800030EE023ACDF828B0D2ED020AD8ED032AB4
:1008900033EE624A05EB070636EE603A05EB0B07CE
:1008A00036EE206AD8ED021A31EE605A36EE216A31
:1008B00077EE423A30EE420A81ED026A31EE201ABA
:1008C00092ED036A37EE066A98ED037A35EE215A07
:1008D00036EE076A33EE612A33EEE23A30EE220A50
:1008E00081ED036A31EE611A0D9905EB010B7FF47E
:1008F000E5AE96ED026A96ED037A65EE070A009D75
:1009000025EE065A0423294644EE060A04EE475A09
:10091000C2ED020A82ED035A97ED044A97ED055A9B
:1009200023EE056A069A23EE043A02EE046A02EE0A
:10093000453A8CED026A8CED033A9BED062A9BED5D
:10094000073A21EE034A21EE021A00EE024A00EEB7
:10095000431A88ED024A88ED031A00F019F9049C45
:10096000042362682946029800F012F962680423A1
:100970000398294600F00CF962680423019829467F
:1009800010B0BDEC0C8B01B0BDE8F04F00F000B929
:100990002DE9F04381B02DED028B0023B3EB920FD4
:1009A00090460C46054669D04FEA9800474200BF82
:1009B00095ED010A20EE008A95ED000A00EE008A0E
:1009C000B0EE480A04F0D8FDB4EEC00AF1EE10FA19
:1009D00003D7B0EE480A04F0CFFD84ED000A95ED90
:1009E000030A20EE008A95ED020A00EE008AB0EEBE
:1009F000480A04F0C1FDB4EEC00AF1EE10FA03D7C4
:100A0000B0EE480A04F0B8FD84ED010A95ED050A40
:100A100020EE008A95ED040A00EE008AB0EE480A46
:100A200004F0AAFDB4EEC00AF1EE10FA03D7B0EE5E
:100A3000480A04F0A1FD84ED020A05F1200995EDB4
:100A4000070A20EE008A04F1100695ED060A00EE72
:100A5000008AB0EE480A04F08FFDB4EEC00AF1EE51
:100A600010FA03D7B0EE480A04F086FD013784ED92
:100A7000030A4D4634469BD134464D4618F00300D8
:100A80001DD0464295ED010A20EE008A271D95ED06
:100A9000000A00EE008AB0EE480A04F06DFDB4EEE4
:100AA000C00AF1EE10FA03D7B0EE480A04F064FD74
:100AB000013684ED000A05F108053C46E2D1BDECA3
:100AC000028B01B0BDE8F083F0B54C1E4FF0000C76
:100AD000BCEB940F90ED000A00F1040E3AD0012611
:100AE0002546A70866F301057E424FF0000C042757
:100AF0009EED001A9EED012A80FE014AB4EEC10A65
:100B00009EED023AF1EE10FA84FE021AB4EEC24AE9
:100B10009EED030AB8BFA7F1030CF1EE10FA81FEB7
:100B2000032AB4EEC31A0EF1100EB8BFA7F1020CDF
:100B3000F1EE10FAB4EEC02A82FE000AB8BFA7F1A7
:100B4000010CF1EE10FAB8BFBC4604370136CFD124
:100B500000EB850E14F0030012D040429EED001A07
:100B6000B4EEC10A80FE011A0EF1040EF1EE10FA85
:100B7000B8BF01EB000CB0EE410A0130EED101E04C
:100B8000B0EE401A82ED001AC3F800C0F0BD0000BC
:100B90002DE9F04F81B02DED108B96B0CDE90332E9
:100BA000019004309FED020A8C460290149101E0FE
:100BB000F304353F4FEADC084FEAC80ACDF81C8041
:100BC000AAEBDC00C00008EB480E139008EB88028B
:100BD0004FEACC074FEA0E14D000029A4FEA4813AE
:100BE00015904FEA08160D934FEACE054FF0000B13
:100BF000CDE90B5602EB0309159812ED011A19ED18
:100C0000013A02EB0A0831EE035A02EB000E0B9890
:100C100018ED016A31EE431A91191EED013A1319CC
:100C200076EE031A564636EE433A02EB000A139864
:100C300051ED012A13ED016A104472EE863A5AED25
:100C4000014A32EEC66AE34450ED012A74EEA25A1C
:100C50003D4674EEE22A75EE634A35EE235A71EE94
:100C6000A53A92ED002A99ED004A98ED007ADEED62
:100C7000000AD1ED006A71EEE51A75EE235A35EEE1
:100C8000635A72EE043A32EE442A37EE204A37EEC7
:100C9000607AD3ED000A76EEA07A76EEE00ADAED1D
:100CA000006A90ED008A36EE889A42ED015A76EE9F
:100CB000C86A09ED015A33EEA78A34EE09AA73EE29
:100CC000E73A34EE494A78EE0A7A38EE4A8A33EE49
:100CD00062AA34EE849AC2ED007A34EEC44A89EDF9
:100CE000008A73EEE14A3A4471EEA31A01ED019ACB
:100CF00033EE223A6AEE002AC1ED004A77EE663AF8
:100D000003ED014A37EE267AC3ED001A71EE626AEE
:100D1000149931EE221A0D9B23EE003A8B4563EEB7
:100D2000802A27EE007A76EE433A36EE033A32EE28
:100D3000625A30EE876A32EE222A30EEC77A71EEBE
:100D4000060A32EE434A31EE461A33EE022A48EDE5
:100D5000010A36EE873A88ED004A00ED011A35EEB9
:100D6000631A80ED002A36EEC72A0EED013A33EE03
:100D7000853A8EED001A0AED012A8AED003AB24654
:100D80000C9EFFF437AFBCF1400FC0F08B810EA872
:100D900080E890140398002480B2019E01250690FB
:100DA0000798C0EBC000C000059000BF069804443F
:100DB000049B03EBC4010A9491ED000A03EB0412B7
:100DC0008DED130A92ED000A04EB44028DED120A38
:100DD00003EB441108964FEAC20A099503EBC200DF
:100DE00091ED004A04EB84014FEA021B03EB02126F
:100DF00090ED003AC80003EBC10192ED006AC4EB2C
:100E0000C4024FEAC40C91ED005AD10003EBC202B8
:100E100092ED007A0CF104024FEA041E1A44D2ED5E
:100E2000000A0EF1040204301A441844D2ED001AEC
:100E30000AF10402D0ED004A0BF104004FEA441914
:100E40001A441844D2ED002A09F10402D0ED005AE8
:100E5000081D1A441844D2ED003AD0ED006AB44699
:100E60002B460D9D9FED921ADDE90B76DDF814807F
:100E700010980CEB05010CEB00021598DCED027AE2
:100E800091ED028A60440E9C37EE88BA0CEB060B9B
:100E900077EEC87A0CEB040992ED028A90ED029A83
:100EA00038EE09CA0CEB070E38EE49AA0CEB080A1B
:100EB0009BED028A99ED029A38EE09DA38EE499AEA
:100EC0009EED028A9AED02EA38EE0EFA7BEE0D8A6A
:100ED00038EE4EEA7CEE0F9A3BEE4DBA3CEE4FCA2E
:100EE00038EEA98A38EEE9DA9CED03FAD1ED038AEF
:100EF0007FEE289A3FEE68FAD2ED038AD0ED03AA7E
:100F000078EEAABA78EEEA8ADBED03AAD9ED03CA35
:100F10007AEEACDA7AEEECAADEED03CADAED03EA99
:100F20007CEEAEFA8CED028A7CEEEECA79EEEDEA4A
:100F30003BEEEF0A79EEAD9A7BEEAFBA7BEE00DACC
:100F40003BEE400A39EEEBBA9DED122A79EEAB9AF0
:100F50007EEECCBA63EE8BFA3CEE2ECACCED039A51
:100F600024EE0BBA62EE2DEA44EE0DFA03EECDBA92
:100F700022EE2BDA41EEABEAC1ED02FA66EE00BAE0
:100F800081ED03BA01EEEDDA66EE0CDACBED02EAA2
:100F900045EE8CBA3AEE4ECA8BED03DA45EEC0DA76
:100FA0003AEE0E0AC9ED02BA2CEE01AA38EEECCAEE
:100FB000C9ED03DA38EEACEA77EECA8A77EE8A7AC0
:100FC00020EE010A2CEE01AA2EEE01CA39EE40EA0B
:100FD00039EE000A3FEE4A9A7AEE8CCA3FEE0AAA30
:100FE0003AEECCCA37EEACFA77EEEC7A78EE8CAA11
:100FF00038EECCCA7AEE408A30EE0A0A39EE4EAAB2
:101000009DED132A26EE808A27EE000A60EEA8CA1C
:101010003EEE099A22EE28EA07EE278A24EE8ABAE3
:1010200006EEE70A65EE0A7A42EE0FCA00EECFEA54
:1010300005EE2ABA44EEEA7AC2ED02CA22EE89AA85
:1010400082ED03EA23EE099A8AED028A8AED030A09
:1010500080ED02BA03EE0CAAC0ED037A02EECC9A40
:1010600011980344149883420F9884448EED02AA89
:101070008EED039AFFF4FCAE099D01350798089E9A
:10108000854206F108060A9CFFF490AE11983F28AD
:1010900003984FEAC000DDF81CC09FED050A0390DD
:1010A0003FF688AD16B0BDEC108B01B0BDE8F08FF7
:1010B000F304353F10B50146806B026C12F0500FFF
:1010C00005D0026CD20626D500F045FB10BD016CA0
:1010D00041F40071016401688A6812F0405F17D121
:1010E0008269AAB9CA6A12F4700F02D08A685205DE
:1010F0000ED44A6822F020024A60016C21F480710B
:101100000164016CC90403D4016C41F00101016464
:1011100000F00CFB10BD806BC26C0846BDE81040AF
:10112000104710B5806B40210164416C41F004010F
:10113000416400F010FB10BD10B5806B00F008FB9F
:1011400010BD0000014800F007BB00002C4D00203E
:101150004A496FF0706210B5D1F8043323F440337C
:10116000C1F80433D1F8043344682343C1F804338D
:1011700001684B6823F480734B60016803694C6815
:1011800044EA03234B6001684B6823F040734B60D3
:10119000016884684B6823434B6001688B6823F4C3
:1011A00000638B600168C4688B6823438B60816A2D
:1011B000D14201688A6822F070628A6001680DD0AD
:1011C000836A8A681A438A6001688A6822F04052FA
:1011D0008A600168C36A8A681A4302E08A6822F05A
:1011E00040528A6001688A6822F002028A600168BF
:1011F00082698B6843EA42028A6090F820100029D5
:10120000016811D01E4A4B6843F400634B600168CB
:101210004B6823F460434B600168446A4B6802EBFF
:10122000443213434B6003E04A6822F400624A6090
:101230000168144BCA6A22F47002CA620168848B86
:10124000CA6A03EB04531A43CA6201688A6822F42B
:1012500000728A60016890F830208B6843EA42226D
:101260008A6001688A6822F480628A600168406945
:101270008A6842EA8020886010BD0000002001409A
:1012800000E0FFFF0000F0FF02494FF40062024857
:1012900000F088BBF80200202C4D002070470000B1
:1012A0000146014801F034BED44D0020044810B579
:1012B00001F040FE042801D0012010BD002010BD27
:1012C000D44D002038B501208DF800009DF80000B5
:1012D000012801D0022038BD064801F019FF0400A2
:1012E00006D104484FF4006101F0D8FC00B101249C
:1012F000204638BDD44D002070B513460A46002460
:101300000146104802F006F840B90F4D0D4801F0B3
:1013100027FE641C032803D0012804D0012070BDDF
:10132000AC42F3D3FAE70024064801F003FE641C44
:10133000042801D0AC42F7D3AC4201D3032070BDE6
:10134000002070BDD44D002000E1F505704700007D
:1013500070B513460A4600240146104802F05CF8B6
:1013600040B90F4D0D4801F0FBFD641C032803D06C
:10137000012804D0012070BDAC42F3D3FAE7002469
:10138000064801F0D7FD641C042801D0AC42F7D315
:10139000AC4201D3032070BD002070BDD44D0020AD
:1013A00000E1F5057047FEE7014800F015BC0000BC
:1013B00038500020014800F00FBC0000D84F00203A
:1013C000014800F009BC0000744D0020014800F005
:1013D00003BC0000584E0020014800F0FDBB000097
:1013E000B84E002001681823CAB2103AB2FBF3F2DB
:1013F000054B6FF30901032A9B5CC36500D9091DE6
:101400008165084670470000B46A000810B583691A
:101410004FF0C074826A0146002053B1B3F5005FFB
:1014200015D072B1012A0CD0022A0AD0032A09D1A0
:1014300004E01AB1012A06D0022A03D1C96AC901FF
:1014400000D5012010BDC96AA142FAD010BD002A02
:10145000F7D0012AF2D0022AF3D0032AF3D010BD2C
:1014600030B50468256825F480252560046863602C
:101470008368402B036803D099600068C26030BD68
:101480009A600068C16030BD70477047002200F06C
:1014900001B800000E4B70B505465C7A0120002CA7
:1014A00014D15E7A03F108009C555E7A03EB860640
:1014B00075605D7A2A54587A421C5A723A232F2258
:1014C000303008704B7020468A70CC7070BD0000C0
:1014D000B85000202DE9F04134490025344F4FF435
:1014E00080649FED340AA7F5405340F2FF3603F5C0
:1014F00080522DED028B4FF4006CCD619FED2E8A52
:10150000CD60A0B3B0424DD1C1E90C56D1E90C0574
:1015100033F815606D1C00EE906A86B2801CF8EE00
:10152000600A02EB8606604560EE800AC6ED000A9E
:1015300086ED018AC1E90C05E8DB2049012320483A
:101540000022FEF709FF1A4922461C48FFF720FA3D
:10155000164B2146164810331A1D87ED008AFFF7F7
:10156000B3FABDEC028BBDE8F04103F087BF4D63D9
:10157000C1F83050D1E90C0533F815606D1C00EE50
:10158000906A86B2801CF8EE600A02EB860660451F
:1015900060EE800AC6ED000A86ED018AC1E90C05FD
:1015A000E8DBCAE7BDEC028BBDE8F081000000205B
:1015B000F83200200000803900000000F8120020FE
:1015C0008079000870470000F8B50025009590F874
:1015D0003C20012A18D0012280F83C200A68072309
:1015E0004E4C0668092A1AD90A3A02EB4207F268F9
:1015F000BB409A43F2600E680268A64206D10B7A9D
:10160000D66846EA036308E00220F8BD0A3E8B680C
:10161000D76806EB4606B3403B43D3600EE002EBCF
:1016200042073269BB409A43326103680E788A6888
:101630001F6906EB4606B2403A431A614A681F2307
:10164000072A13D20668521E02EB8207726BBB4058
:101650009A43726303680E790A88761E5F6B92B2B2
:1016600006EB8606B2403A435A6327E006680D2A25
:1016700012D2D21F02EB8207326BBB409A43326315
:1016800002680E790B88F61F176B9BB206EB860675
:10169000B3403B43136311E00D3A02EB8207F26A59
:1016A000BB409A43F26202680E790B880D3ED76AFE
:1016B0009BB206EB8606B3403B43D362184A0368ED
:1016C000934208D10B68122B05D1D2F8043343F4AE
:1016D0008003C2F80433036893421AD10B68A34213
:1016E00001D0112B15D1D2F8043343F40003C2F812
:1016F00004330968A1420CD10A490B4A0968B1FBBD
:10170000F2F101EB8101490000E0491E009100293E
:10171000FBD180F83C500020F8BD00001200001002
:10172000002001406000002040420F0010B500681A
:101730000549884206D140F2FF30FFF7CBFE03494E
:101740000120886110BD000000220140000000203F
:101750000020FFF7BFBE704770B5044600680168FF
:101760004268C1F34001C2F3401251B34AB3216C45
:10177000C90603D4216C41F400712164816811F021
:10178000405F17D1A169A9B9C16A11F4700F02D0E5
:10179000816849050ED4416821F020014160206C28
:1017A00020F480702064206CC00403D4206C40F0CE
:1017B000010020642046FFF7B9FF21686FF0120096
:1017C0000860206801684268C1F38001C2F3C0125A
:1017D00089B382B3216CC90603D4216C41F4005152
:1017E0002164816811F4401F1ED1816B11F4401FE8
:1017F00002D08168490517D44168490514D481682D
:1018000011F0405F10D1A16971B9416821F08001E8
:101810004160206C20F480502064206CC00503D40B
:10182000206C40F0010020642046FFF7CBFE2168C9
:101830006FF00C00086020680168436811F0010F28
:10184000C3F380110ED069B10068C0070AD0206CC4
:1018500040F480302064204600F046F821686FF0A4
:1018600001000860206801684268C1F34011002946
:10187000C2F380620DD0002A0BD0616C6FF020059E
:1018800041F00201616405602046FFF764FF2068B3
:10189000056070BD70B504004FF0000503D0206CEA
:1018A000002610B107E0012070BD204600F01EF8B0
:1018B000666484F83C60206CC00610D4206C20F470
:1018C000885040F0020020642046FFF741FC666427
:1018D000206C20F0020040F00100206400E00125AF
:1018E00084F83C60284670BD704700002DE9F04147
:1018F00086B0804614216846FEF7CCFC2449D8F80F
:101900000000884241D12348016841F480610160B0
:10191000006800F4806005901E481438016841F0AA
:1019200020010160006800254FF48066694600F0E0
:101930002000059003200096CDE90105164800F02F
:10194000DDFA1748154C8105C2142060871548122E
:10195000C4E901154B13C4E9035604F11401C4E9A9
:101960000805204681E88C0000F006FA08B1FFF770
:101970008CFD0022C8F8384012201146C4F8388087
:1019800000F01EFC122000F00DFC06B0BDE8F08156
:10199000002201404438024000140240744D0020EF
:1019A00010640240F8B50D4604460021009190F8FD
:1019B0003C00012807D0012084F83C00206883689F
:1019C000DB0702D011E00220F8BD8668364B46F0F6
:1019D0000106866035480068B0FBF3F000EB40007C
:1019E00000E0401E00900028FBD120688368DB07E0
:1019F00058D0236C40F20166B34343F480732364F0
:101A00004068400505D5206C20F4005040F480501B
:101A10002064206CC00404D5606C20F00600606473
:101A200000E061646FF0220084F83C10A36B204951
:101A3000D963A36B1F491964A36B1F49D96421683B
:101A400008602068416841F08061416020688168D9
:101A500041F48071816021681346A06B2A464C31A5
:101A600000F0FCF91549D1F80403C006206811D034
:101A7000884207D1826812F0405F03D1826842F049
:101A800080428260D1F80403C0060BD40C49206860
:101A9000884207D1816811F0405F03D1816841F02D
:101AA000804181600020F8BD40420F0060000020AE
:101AB000B51000083911000823110008002001406A
:101AC0000022014010B590F83C1004460020012986
:101AD0000CD0012184F83C1021688A6822F00102B0
:101AE0008A6021688A68D20702D013E0022010BD04
:101AF000886820F480708860A06B00F00FF821687F
:101B00004A6822F080624A60216C21F4885141F0D9
:101B100001012164002184F83C1010BD2DE9F04141
:101B2000876D044600F0E2FA064694F83500002579
:101B3000022806D080206065012084F83450BDE87A
:101B4000F0812068016821F0160101602068416978
:101B500021F080014161206C08B9A06C20B120689F
:101B6000016821F0080101602068016821F001018D
:101B700001600CE000F0BAFA801B052807D920218B
:101B80006165032084F8345084F83500D7E7206875
:101B90000068C007EED194F85C203F2001219040FE
:101BA000B86084F8345084F835100020C7E790F806
:101BB0003510022903D0802141650120704705219D
:101BC00080F835100068016821F0010101600020F3
:101BD0007047406D704700002DE9F84304464FF010
:101BE0000009644B0820CDF800904FF41652A56D03
:101BF00094F85C101B682E68B3FBF2F700FA01F151
:101C000031420FD021680A6852070BD50A6822F0CA
:101C100004020A6094F85C108840A860606D40F08F
:101C20000100606594F85C104FF0010808FA01F0BB
:101C3000304208D021684969090604D5A860606D62
:101C400040F00200606594F85C1004208840304247
:101C500008D021680968890704D5A860606D40F044
:101C60000400606594F85C1010208840304218D061
:101C700021680968090714D5A8602068016849032C
:101C800004D50068000308D5A16C07E00168C90508
:101C900003D4016821F008010160216C09B12046DC
:101CA000884794F85C1020208840304231D0216869
:101CB0000968C9062DD5A86094F835000528206864
:101CC000016806D0490347D5006800031DD4616C44
:101CD0001CE021F0160101602068416921F08001BB
:101CE0004161206C08B9A06C20B12068016821F026
:101CF0000801016094F85C303F229A40AA6084F8A1
:101D0000349084F83580216D1FE0E16B09B12046E5
:101D10008847606D00282BD0606DC00714D0052067
:101D200084F835002068016821F001010160009805
:101D3000401C0090B84203D820680068C007F6D164
:101D400084F8349084F83580E16C002910D001B01B
:101D50002046BDE8F04308470168C905D5D40368AB
:101D600023F01003036084F8349084F83580CCE7C6
:101D7000BDE8F883600000202DE9F047044600F03C
:101D8000B5F9054664B14FF0000984F8349002219A
:101D900084F835102068016821F0010101600EE02F
:101DA0000120BDE8F08700BF00F0A0F9401B052826
:101DB00005D920216165032084F83500F1E720680A
:101DC0000068C007F0D1D4E90020D4E90251D4E979
:101DD000043C284304F1180519430843116895E8A9
:101DE000E00140EA0C001C4B2843194040EA060081
:101DF00040EA0700B8F1040F40EA010003D1D4E93A
:101E00000B1319430843106020680126656A406976
:101E1000042D20F0070045EA00050CD1D4E90A01A1
:101E2000054341B12046FFF7F1FA20B1402060653B
:101E300084F83560B4E7206845612046FFF7D2FAA0
:101E400094F85C303F229A408260C4F8549084F841
:101E500035600020A5E700003F8010F02DE9F0413B
:101E6000044690F8340000250128A66D0ED094F8A1
:101E700035C00127002084F83470BCF1010F07D071
:101E8000022584F834002846BDE8F0810220FBE7F3
:101E9000022784F8357060652046FFF7E1FA94F870
:101EA0005C103F208840B0602068016841F0160156
:101EB00001602068416941F080014161206C20B1DE
:101EC0002068016841F0080101602068016841F064
:101ED00001010160D7E7000070B5044600F006F983
:101EE0000546601C02D004480078044400F0FEF867
:101EF000401BA042FAD370BD540000202DE9F84FDA
:101F0000DFF89CE100224FF001084FF0030B4FF087
:101F10000F0A00BF0B6808FA02F42340A34271D1F4
:101F20004D68022D01D0122D0FD1D5080E6957072B
:101F300000EB8505A9462D6AFF0E0AFA07FCBE4094
:101F400025EA0C052E43C9F820600F795500066874
:101F50000BFA05FC07F0030726EA0C06AF403743EF
:101F600007604E68012E05D0022E03D0112E01D03D
:101F7000122E0ED18668CF6826EA0C06AF40374392
:101F8000876046680F79A643C7F300179740374329
:101F90004760C4688E6824EA0C04AE402643C660DD
:101FA0004C68E40075D53F4C256845F480452560B4
:101FB000246822F00306950704F4804400943A4C08
:101FC0002D0F2644D6F80848DFF8E0C00AFA05F7D6
:101FD000604524EA070401D100272EE0344FB842BF
:101FE00001D1012729E0334FB84201D1022724E073
:101FF000314FB84201D103271FE0304FB84202D120
:1020000004271AE045E02E4FB84201D1052714E01D
:102010002C4FB84201D106270FE02B4FB84201D117
:1020200007270AE0294FB84201D1082705E0284FC9
:10203000B84201D1092700E00A27AF40274375467F
:10204000C6F808784E68DEF80040F60324EA030478
:1020500000D51C43124E2C60361D4D683468AD030C
:1020600024EA030400D51C430D4F346008374D6843
:102070003C68ED0224EA030400D51C43084D3C6093
:102080000C354E682C68B60224EA030400D51C43C4
:102090002C60521C102AFFF43DAFBDE8F88F000001
:1020A000003C014044380240003001400000024042
:1020B0000004024000080240000C024000100240F0
:1020C0000014024000180240001C024000200240A0
:1020D00000240240426931EA020200D10904816110
:1020E00070470AB1816170470904FBE701488068C5
:1020F00070470000540000200248816802781144B3
:102100008160704754000020094810B5016841F40F
:1021100000710160016841F480710160032000F0EA
:102120006FF8002000F006F800F024F8002010BD41
:10213000003C024070B50D4D04464FF47A700C4AD5
:1021400029781268B0FBF1F0B2FBF0F001F0E0F991
:1021500048B9102C07D200222146501E00F030F85A
:1021600000206C6070BD012070BD00005400002094
:10217000600000200A4808B5016841F08051016004
:10218000006800F0805000900548001D016841F48F
:1021900080410160006800F48040009008BD0000AC
:1021A00040380240002809DB410900F01F02890085
:1021B000012001F1E0219040C1F8000170470000CA
:1021C0000E4BF0B41B680D46C3F30223C3F10706A0
:1021D000042E00D90426191D072901D2002300E08E
:1021E000DB1E012404FA06F19C40491E2940641EAE
:1021F000994014402143F0BC03F0ADB90CED00E070
:10220000064900F0070210B54FF6FF040868044BBA
:10221000204040EA02201843086010BD0CED00E0A9
:102220000000FA051848F8B5016841F080510160D6
:102230000068164C00F080500090206840F4803018
:102240002060FFF753FF4FF47A76054605E000BFA4
:10225000FFF74CFF401BB0420FD86068C003F7D5B2
:10226000206840F400302060FFF740FF054606E09C
:10227000FFF73CFF401BB04201D90320F8BD606866
:102280008003F5D50020F8BD4038024000700040C2
:102290002DE9F84F04460078DFF824944FF000064B
:1022A0003746C0070ED0D9F8001021F40001C9F854
:1022B0000010D9F80010626B1143C9F80010606B70
:1022C00000B90126FE4D2068843500030ED5E16B70
:1022D000286820F4401008432860E06BB0F5801FA8
:1022E00001D010B102E0012600E0012720684FF480
:1022F000800BC0020CD5216C286820F440000843F4
:102300002860206C584501D1012601E000B9012761
:102310002068C10100D50126800666D5E84838301E
:10232000016841F0805101600068DFF898A300F077
:1023300080500090DAF8001041F48071CAF8001063
:10234000FFF7D4FE804605E0FFF7D0FEA0EB0800C3
:1023500064287DD8DAF80000C005F5D5DFF8608381
:1023600008F16808D8F8000010F440702AD0218ED7
:1023700001F44071814225D0D8F80010D8F800202F
:1023800021F4407142F48032C8F80020D8F80020CF
:1023900022F48032C8F80020C8F80010D8F80000F5
:1023A000C0070FD0FFF7A2FE824607E0FFF79EFEB0
:1023B000A0EB0A0141F288308142CAD8D8F8000067
:1023C0008007F3D5206BC0F3012103297ED0D9F813
:1023D000001021F4F811C9F80010228ED8F800106E
:1023E000C2F30B021143C8F800102078C00607D5CD
:1023F000286820F0807028602868A16B0843286056
:102400002188AF488830490405D5626E016821F4FF
:102410004031114301602188090405D5A26E01688D
:1024200021F44021114301602168C90305D5E26E02
:10243000016821F44011114301602168890305D529
:10244000226F016821F4400111430160217800E00E
:1024500018E1490605D5626C016821F003011143BA
:1024600001602178090605D5A26C016821F00C01F4
:10247000114301602188C90505D5E26C016821F08E
:102480003001114301602188890505D5226D01685D
:1024900021F0C001114301602188490505D5626D15
:1024A000016821F44071114301602188090505D5B7
:1024B000A26D016821F44061114301602188C904C3
:1024C00007D5E26D016821F4405100E041E011437D
:1024D00001602188890405D5226E016821F44041FC
:1024E000114301602168490205D5A26F016821F0FE
:1024F00080611143016021684FF0006A890209D5AB
:10250000E26F016821F0006111430160E16F514504
:1025100000D1012721680A0700D50127490305D505
:10252000626F016821F04071114301602168090266
:1025300006D5D4F88020016821F080511143016054
:10254000DFF88491012E0ED02068B0F1007F0AD010
:102550008FE05E4AD9F80030104023F4F8120243AD
:10256000C9F8002039E7D9F800004E4620F0806015
:10257000C9F80000FFF7BAFD804605E0FFF7B6FD99
:10258000A0EB080064287DD830680001F6D42178DB
:102590004B487C30C90712D0616B81B9237A6268DD
:1025A0000168D0F800C09201C1F3014142EA014242
:1025B000CCF3036142EA016141EA037101602168E1
:1025C0000A0303D5E26BB2F5801F04D0C9021AD505
:1025D000216C594517D16368016894F80CC00268F2
:1025E0009B01C1F3014143EA0141C2F3027241EA96
:1025F0000C6141EA027101602968626A21F01F01E1
:10260000521E114329602168C90110D5238A6268CE
:102610000168D0F800C09201C1F3036142EA0342AD
:1026200042EA0162CCF3027142EA01710160216861
:1026300089010CD56168228A237B94F808C089013E
:1026400041EA024141EA036141EA0C7101603168EB
:10265000B04641F080613160FFF748FD064604E076
:10266000FFF744FD801B64280CD8D8F80000000157
:10267000F6D56FB3D9F800004E4620F08050C9F867
:10268000000000E079E0FFF731FD074605E000BFFC
:10269000FFF72CFDC01B64286FD83068C043800052
:1026A000F6D50748216880300A0301D5E26B1AB1DC
:1026B000C90225D5216C19BB63690168277E08E032
:1026C000083802400070004000380240FFFCFF0F55
:1026D0005AE00268C1F301419B0143EA0143C2F39E
:1026E000027143EA076242EA0171016029686FF0F2
:1026F000FF03A26A21F4F85103EB0222114329607F
:102700002168890212D5E16F51450FD1238C62698E
:10271000016807689201C1F3036142EA034242EA99
:102720000162C7F3027142EA017101602178090771
:1027300016D561690268D0F800C08B01277FC2F30B
:102740000362CCF3014143EA014141EA026141EAFB
:10275000077101602868E16A20F44030084328606E
:10276000306840F080503060FFF7C0FC044607E05E
:10277000FFF7BCFC001B642802D90320BDE8F88FDA
:102780003068C0438000F3D40020F7E72DE9F0471C
:1027900005000F4663D0444E306800F00F00B84289
:1027A00009D2306820F00F0038433060306800F004
:1027B0000F00B84253D128683C4C810712D540071E
:1027C00003D5206840F4E05020602878000703D546
:1027D000206840F460402060A968206820F0F00084
:1027E000084320602878C0072AD030496868083933
:1027F000012810D00968022810D0890700292EDA94
:10280000216821F0030101432160FFF76FFC80463E
:1028100041F288390DE009688903EFE78901EDE7A6
:10282000FFF764FCA0EB0801494502D90320BDE88D
:10283000F0876868216801F00C01B1EB800FEFD1DF
:10284000306800F00F00B8420BD9306820F00F005C
:1028500038433060306800F00F00B84201D00120EA
:10286000E5E72878400705D5E968206820F4E050BE
:10287000084320602878000706D52869216821F4DC
:10288000604141EAC000206000F036F82168084A43
:10289000C1F30311515CC840064908600020FFF7EE
:1028A00049FC0020C3E70000003C02400838024019
:1028B000BC6A0008600000200449054809680068F7
:1028C000044AC1F38221515CC84070470838024075
:1028D00060000020CC6A00080449054809680068C7
:1028E000044AC1F34231515CC84070470838024085
:1028F00060000020CC6A0008154910B51548096829
:1029000011F00C0213D01449042A0FD0082A0ED15A
:102910000F4C241F2268236802F03F025B0207D598
:102920002068C0F38810A0FB010106E0084610BD36
:102930002168C1F38811A1FB00010023FDF760FCB1
:102940002168C1F30141491C4900B0FBF1F010BD01
:10295000083802400024F40040787D012DE9F84F4A
:1029600005004FF000076ED02878DFF81C93A9F11E
:10297000040AC007AAF104044CD0D9F80010484654
:10298000C1F38101012908D00068C0F38100022849
:102990000AD1DAF80000400206D52068800339D554
:1029A00068680028DFD035E06868B0F5803F0BD05C
:1029B00010B1B0F5A02F11D0206820F48030206035
:1029C000206820F4802002E0206840F480302060FD
:1029D000686890B1FFF78AFB06460AE0206840F479
:1029E00080202060F0E700BFFFF780FB801B642899
:1029F00072D820688003F7D50CE0FFF777FB064616
:102A000005E000BFFFF772FB801B6428F0D8206848
:102A10008003F7D42878800742D5D9F800104846BB
:102A200011F00C0F08D00068C0F3810002280BD110
:102A3000DAF80000400207D42068800718D5E8685B
:102A4000012800D114E01CE1E8680028206817D0B4
:102A500040F001002060FFF749FB064605E000BF9B
:102A6000FFF744FB801B0228C2D820688007F7D5F7
:102A70002869216821F0F80141EAC00020600FE0D8
:102A800020F001002060FFF731FB064605E000BFA3
:102A9000FFF72CFB801B02281ED820688007F7D484
:102AA0002878000729D5784869696C300029804664
:102AB000016812D041F001010160FFF717FB0646E3
:102AC00005E000BFFFF712FB801B022804D8D8F8EE
:102AD00000008007F6D510E089E021F001010160D7
:102AE000FFF704FB064604E0FFF700FB801B02280B
:102AF0007DD8D8F800008007F6D4287840076BD539
:102B0000DFF8848108F13808D8F80000C0000BD441
:102B1000D8F8001041F08051C8F80010D8F8000033
:102B2000012700F08050009058480168C90512D470
:102B30000168834641F480710160FFF7D7FA0646C9
:102B400005E000BFFFF7D2FA801B64284FD8DBF8FE
:102B50000000C005F6D54C4EA868683601280AD09A
:102B600008B1052811D0306820F0010030603068CD
:102B700020F0040002E0306840F001003060A868F6
:102B8000A0B1FFF7B3FA83460CE0306840F00400D0
:102B90003060F0E7FFF7AAFAA0EB0B0141F28830B2
:102BA000814266D830688007F4D50EE0FFF79EFAC0
:102BB000834607E0FFF79AFAA0EB0B0141F2883059
:102BC000814256D830688007F4D42FB1D8F800106D
:102BD00021F08051C8F80010A869C8B3D9F80010D6
:102BE000C1F3810102294CD00228206800E040E0B6
:102BF00020F08070206003D0FFF778FA05463BE0B4
:102C0000FFF774FA064604E0FFF770FA801B02280B
:102C10002FD820688001F7D4D5E90962D5E90701EA
:102C20001B4B570895F82C20084303EB074343EA56
:102C30008611084340EA026040F00050CAF80000E4
:102C4000206840F080702060FFF750FA054606E0EB
:102C500015E000BFFFF74AFA401B022809D8206898
:102C60008001F7D50BE000BFFFF740FA401B0228B8
:102C700002D90320BDE8F88F20688001F4D4002039
:102C8000F8E70120F6E70000083802400070004035
:102C90000000FFFF10B5FEF701FB10BDFEB50446B6
:102CA0000D46416C032084F83400032920D0B5F58B
:102CB000805F1DD0B5F5006F05D045B1A06B40F029
:102CC0000060A06309E0204601F090FF02E020468A
:102CD00001F065FFA16B0143A163A06B012658B110
:102CE000216840F2FF50886384F834600120FEBD03
:102CF000A06B40F08050E4E7211DD4E905070EC920
:102D0000CDE900500297206801F008FD84F8346096
:102D10000020FEBD7047F0B5426E120E93090B7095
:102D2000C2F3830402F003024C708A70426E120CEC
:102D3000CA70B0F86420120A0A7190F864204A71CF
:102D40004FF6FF73826E120E03EA0212CA80CB881E
:102D5000826EC2F3074214092343CB8002F00F02B4
:102D60000A72B0F868200025C2F30722D3094B721B
:102D7000C2F38014C2F34016C2F300178C72CE72F5
:102D80000F734D730123446C4FF400766CB1012C2A
:102D900046D0026840F2FF519163816B41F080514F
:102DA000816380F834300120F0BD9207120D0A6172
:102DB0000C6990F8682044EA82020A610C69C26ECC
:102DC000120E9709C2F3C20C3C430C6102F00702D9
:102DD00081F814C04A75C26EC2F3074294075709BE
:102DE0008F75640FC2F38202CA750C760A7EB0F842
:102DF0006C40C4F3072442EAD4120A760A69521CD2
:102E000042650F7EBF1CBA4042650F7A03FA07F78E
:102E100087654FEA572C02FB0CF2C0E917261CE02D
:102E200090F868209206920A0A610C69C26E120E2E
:102E300044EA02220A610C69C26EC2F307421443DB
:102E40000C610A69B0F86C40521C4FEA822242655C
:102E5000C4F30724C0E916620666C4F380124FEA81
:102E600084644A764FEA54648C7690F86C208C7EA9
:102E70004FEAD21602F07F0244EA06048C76CA7644
:102E800050F8702F4FEA12624FEAD2140C77C2F357
:102E90004116C2F382074FEA82724E778F774FEA6C
:102EA0001272CA77CC7F0268C2F3074244EA9214D6
:102EB000CC77C2F3401602F0010281F8206081F85D
:102EC000215081F822200288C2F307224FEAD2144F
:102ED00081F82340C2F38015C2F34016C2F30017F5
:102EE000C2F3810C02F0030281F8245081F82560BE
:102EF00081F8267081F827C081F8282000784FEAF1
:102F0000500081F8290081F82A304FF00000F0BD10
:102F1000426C0A60826C4A60C26C8A60026DCA6050
:102F2000426D0A61826D4A61C26D8A61006EC8613C
:102F30000020704770B5B0F85010002504460068B6
:102F4000090401F037FA18B1A16B0143A16304E051
:102F50002068002101F0DCFB0546C5F3432070BD6D
:102F600090F834007047000070B5044600680125F1
:102F700040F2FF56416BC90548D52902816320689C
:102F8000C16B21F49D71C163206B0007206B20D5BC
:102F9000800702D4206B800609D5206801F03CFA36
:102FA00028B1A16B0143A1632046FFF7B3FE20685F
:102FB000866384F83450206BC00702D1206B8007F1
:102FC00003D5204600F020FA70BD204600F020FA1C
:102FD00070BD0006FCD5206B800609D5206801F085
:102FE0001BFA28B1A16B0143A1632046FFF792FEB3
:102FF000206BC007ECD1206B8007E9D42068C16A40
:1030000021F00801C16284F83450DEE7416B4904C5
:1030100010D54FF480418163266A0025206806EBB5
:10302000850101F0A4FB6D1C082DF7D3206A203028
:10303000206270BD416B090410D54FF400418163DB
:10304000A66A0025206801F07EFB46F825006D1C6D
:10305000082DF7D3A06A2030A06270BD416B11F03B
:103060003A0FFAD0416B890703D5A16B41F00201F9
:10307000A163416B090703D5A16B41F00801A1636E
:10308000416B890603D5A16B41F02001A163416B1F
:10309000C90603D5A16B41F01001A16386632068C6
:1030A000C16B21F49D71C163206B000623D5206C98
:1030B00058B115490165206CFEF779FD0028CCD088
:1030C000206CBDE8704001F0E0BBE06B58B10F49E7
:1030D0000165E06BFEF76BFD0028BED0E06BBDE83C
:1030E000704001F0A7BB0020A06384F83450204654
:1030F000FFF7D0FD70BD206B0007FBD584F834507E
:103100002046FFF707FE70BD8B48000835480008D1
:1031100070B5040004D094F83400002510B105E027
:10312000012070BD2046257700F03CF8032084F88C
:103130003400204600F007F80120A563256384F8D9
:103140003400002070BD3EB5044676200021009179
:103150000B460A46CDE90110206801F0DFFA20682D
:10316000416821F480714160206801F0E8FA20682C
:10317000416841F4807141600220FEF7ADFE2046B7
:1031800001F0BAFC4FF0010520B9204601F00CFC1B
:10319000002805D084F83450A16B0143A1630120BD
:1031A0003EBD00002DE9F04F87B0814614216846EE
:1031B000FDF770F85149D9F8000088427ED1504897
:1031C000016841F40061016000684D4A00F400604C
:1031D0000590143A10461146126842F0040202604B
:1031E0000868474A00F004000590143A104611465A
:1031F000126842F0080202600868032502224FF0BC
:10320000000A00F0080003954FF4F8518DE8060419
:103210000C246946CDE904403A48FEF76FFE0221CE
:10322000CDF808A004263848CDE90061CDE9035463
:103230006946FEF763FE354C7006DFF8D4804FF424
:10324000001B4114C213C4F808A04313C4E9008052
:10325000C4E903A104F11401C4F830B020272046CA
:10326000C4E908A64FF4000C81E88C00C4E90A5CAC
:10327000FEF782FD08B1FEF708F9244D4FF000611A
:10328000DFF88CC020206035C9F83C40C4F8389085
:103290000CF1480C4B144FF04008C5F800C0CE1399
:1032A00069604F13C5F8088003214FF440344FF094
:1032B000040C4FF40008C5F80CA000E01BE01C351E
:1032C000A5E81110114885E80209183D603085E82D
:1032D000C800103DFEF750FD08B1FEF7D6F80022F9
:1032E000C9F8405031201146C5F83890FEF768FF04
:1032F0003120FEF757FF07B0BDE8F08F002C0140EA
:103300004438024000080240000C0240584E0020A1
:10331000586402402DE9F04387B01F461546044625
:1033200039B194F83400012807D0022007B0BDE875
:10333000F083A06B40F0006008E0E26D0020EB1924
:10334000A063934204D9A06B40F00070A06355E0E5
:103350000322814684F834202268D0622268D36B2D
:1033600043F49573D363E36B4FEA4728244ADA6347
:10337000E36B244ADA644FEA9803E26B10650A466D
:103380002068E66B00F180013046FEF767FD20689B
:10339000C16A41F00801C162606C012800D06D0271
:1033A000694601260596B01ECDE9000802A89022C4
:1033B000022380E80C02206801F07AF8206871028C
:1033C00000F0DEFE40F2FF5880B9012F06D98220BE
:1033D00020632068294600F05FFF05E0812020631C
:1033E0002068294600F071FF00289FD02268C2F8AB
:1033F0003880A16B0143A16384F83460012095E714
:10340000F74700089947000810B5FDF79FFF10BD6A
:1034100010B5FDF7C7FF10BD2DE9F04F5FEA010BB6
:103420001E4687B01546044607D094F8340001289C
:1034300007D0022007B0BDE8F08FA06B40F000601D
:1034400008E0E16D0020AA19A0638A4204D9A06BAC
:1034500040F00070A0633AE00321804684F8341005
:103460002168C8622168CA6B42F01A02CA63226CE2
:103470002549D163226C2549D164216C0865606CB3
:10348000012800D06D0220684FF4007100F078FE32
:103490004FF0010740F2FF5988B9012E4FF0900A12
:1034A00006D9A02020632068294600F0CFFF05E060
:1034B000C4F830A02946206800F0E1FF48B1226836
:1034C000C2F83890A16B0143A16384F834700120E5
:1034D000B0E72068C16A41F00801C1622268750244
:1034E000206C5946AB088032FEF7B8FCCDE9048762
:1034F0004FF0FF326946CDE902A8CDE900252068EA
:1035000000F0D6FF002095E77D48000899470008A5
:10351000401EB0F1807F10B501D3012010BD4FF0E7
:10352000E02460610F21601702F015F80020A0610F
:103530000721216110BD70477047704770B590F842
:103540003C20012A24D0134C012580F83C50022253
:1035500080F83D2002685368A242966802D00E4C63
:10356000A24203D14C6823F4700323430C6823F078
:10357000700389681C435460002326F080060268AB
:103580003143916080F83D5080F83C30184670BD62
:10359000022070BD000001400004014010B504008D
:1035A00003D094F83D0010B107E0012010BD0020C9
:1035B00084F83C00204600F00DF8022084F83D001D
:1035C0002068211D01F070FC012084F83D000020DE
:1035D00010BD000008B500681349884222D1134885
:1035E000016841F00101016000680022114600F00D
:1035F000010000901820FEF7E3FD1820FEF7D2FD31
:10360000002219201146FEF7DBFD1920FEF7CAFD46
:1036100000221A201146FEF7D3FDBDE808401A200B
:10362000FEF7C0BD08BD0000000001404438024064
:103630000168094ACB6843F00103CB6001688868E0
:103640001040062806D0B0F5803F03D0086840F04F
:1036500001000860002070470700010070B50446B3
:1036600090F83C00012817D0324B012584F83C50DB
:10367000022084F83D0022689068184020F47F40C2
:1036800090600868502830D00DDC20284DD005DC33
:1036900098B310283BD148E0022070BD302844D0B8
:1036A000402834D139E0602828D0702806D0B0F501
:1036B000805F2CD0B0F5005F29D10AE04A6820680D
:1036C000D1E9021301F056FC2068816841F07701CE
:1036D00009E04A682068D1E9021301F04BFC206838
:1036E000816841F48041816011E0CA6849682068BE
:1036F00001F051FC2068502107E016E0CA684968D3
:10370000206801F059FC2068602101F03CFC002099
:1037100084F83D5084F83C0070BDCA684968206850
:1037200001F039FC20684021EFE72268014610468D
:10373000EBE7000088FFFEFF704770B504460068A5
:1037400000250169C943890715D4C168C9438907A0
:1037500011D4EA1E02610121217720688069800767
:10376000204602D0FFF7E8FF04E000F0A7F820466B
:1037700000F0A5F8257720680169C943490717D4E7
:10378000C168C943490713D402216FF004020261E2
:1037900021772068806910F4407F204602D0FFF72F
:1037A000CBFF04E000F08AF8204600F088F8257787
:1037B00020680169C943090716D4C168C9430907CC
:1037C00012D404216FF00802026121772068C069D9
:1037D0008007204602D0FFF7AFFF04E000F06EF84C
:1037E000204600F06CF8257720680169C943C906B6
:1037F00017D4C168C943C90613D408216FF0100259
:10380000026121772068C06910F4407F204602D011
:10381000FFF792FF04E000F051F8204600F04FF867
:10382000257720680169C943C90708D1C168C94320
:10383000C90704D1891E0161204600F041F82068C3
:103840000169C943090609D4C168C943090605D4F9
:103850006FF0800101612046FFF76EFE206801696C
:10386000C943C90509D4C168C943090605D46FF421
:10387000807101612046FFF75EFE20680169C9433F
:10388000490609D4C168C943490605D46FF040010F
:103890000161204600F015F820680169C9438906D6
:1038A0000BD4C168C943890607D46FF020010161B8
:1038B0002046BDE87040FFF740BE70BD70477047BE
:1038C0007047704770B5044600681026616FA56F99
:1038D0008268120612D5212910D1816821F0800159
:1038E0008160A06E38B1FEF719F920B1A06EFEF725
:1038F00070F920281BD0204601F073FC20688168F5
:10390000490612D5222D10D1816821F04001816035
:10391000E06E38B1FEF702F920B1E06EFEF759F91A
:10392000202804D0204601F04CFC002070BDE66742
:10393000032070BD704700002DE9F0410268044685
:103940000025D0691168936810F00F0F5BD003F069
:10395000010601F49077374369D0C70707D0CF0538
:1039600005D501271762E26F42F00102E267820784
:1039700008D5DA0706D0276802223A62E26F42F0E1
:103980000402E267420708D5DA0706D0236804225A
:103990001A62E26F42F00202E26702070AD501F002
:1039A0002002324306D0236808221A62E26F42F0F6
:1039B0000802E267E26F002A32D0800605D5880649
:1039C00003D5216E09B1204688472168E06F8968D8
:1039D000490601D4000725D5204601F0F2FB2068F6
:1039E0008168490619D5816821F040018160E06E47
:1039F00098B11A490165E06EFEF7D9F800280FD09A
:103A0000E06E016D06E0830611D58B060FD5216EA1
:103A100012E02046BDE8F04108472046FFF78AFF44
:103A2000BDE8F0812046FFF785FFE567F8E703066C
:103A300005D50B0603D5616E0029EAD1F0E74006F3
:103A4000EED54806ECD513682021204623F040032C
:103A500013606167656600F07BF9E1E7ED500008EF
:103A600010B5040002D0606F10B107E0012010BD56
:103A7000002084F87000204600F026F824206067BB
:103A80002068016821F001010160204601F0CCFBB3
:103A90000128ECD0606A10B1204601F0A5FA206838
:103AA000416821F4904141602068816821F02A0139
:103AB00081602068016841F0010101602046BDE895
:103AC000104001F0F5BA00002DE9F04387B0074639
:103AD00014216846FCF7DEFB30493868884259D12A
:103AE0002F48016841F080410160006800F080408B
:103AF00005902B481038016841F0200101600068F2
:103B00000024022100F020000590C02008238DE849
:103B1000130003222348CDE903236946FEF7EEF99B
:103B2000214E4FF48069214A4FF0206830463260C0
:103B3000C6E90184C6E903497461B461F461346281
:103B40007462FEF719F908B1FDF79FFC164D40238A
:103B5000164A6035FE66B763303A05F108002A6000
:103B6000DA02C5F8048080E818026C612846AC616E
:103B7000C5E907426C62FEF7FFF808B1FDF785FC66
:103B80000022BD6652201146AF63FEF719FB52209A
:103B9000FEF708FB07B0BDE8F083000000780040A6
:103BA0004038024000140240D84F002058600240C4
:103BB00070B50446806F20283FD149B342B394F8D2
:103BC0007000012839D0E06E012684F8706000256D
:103BD00061652223A4F85820E567A367D0B118498E
:103BE0001346C163E16E17480864E16E1648C86465
:103BF000E06E0565666D2168E06E32462431FEF7A1
:103C00002DF938B11021E167202084F870506067E9
:103C1000012070BD84F870502068016841F4807103
:103C200001602068816841F001018160206881683D
:103C300041F040018160002070BD022070BD000095
:103C400047510008815100080151000810B5006873
:103C50001449884225D11449144C0A78332A02D0D9
:103C6000352A08D019E01248FDF72CFF1148FFF75C
:103C700029FE00220DE048784D280ED10A49012284
:103C800000204839C1E90202FDF7FEFA01F0F6FB17
:103C9000012220460221FEF724FABDE8104001F07F
:103CA000A9BA10BD00780040480000200020024062
:103CB0002C4D0020584F00207047000070B504467E
:103CC000406F20283BD161B35AB394F870000128AB
:103CD00035D0A4F85020A4F852200025A06E01236E
:103CE000E164212184F87030E5676167D8B1154936
:103CF0001346C163A16E14480864A16E1348C864DA
:103D0000A06E05652068A66E00F12802E16C3046C1
:103D1000FEF7A4F838B11021E167202084F8705034
:103D20006067012070BD21684020086284F87050EF
:103D30002068816841F080018160002070BD022010
:103D400070BD00008B510008B951000801510008F6
:103D500010B500680549884206D105484021FEF7A4
:103D6000B9F904490120086210BD00000078004044
:103D700000180240000000207047FEE770B50A4EB0
:103D8000012556600B4690611021D5824000518478
:103D9000022411611146D0611846148400F055F9CF
:103DA000012800D0002070BD00093D007FB51748F4
:103DB00000240125144A00944FF0405101942B0433
:103DC0000294039402604FF01062C0E90134046170
:103DD000846180F82040C561C460C0E90A2180F890
:103DE00030504561FDF756FD08B1FDF74EFB082048
:103DF0006946CDE9000505480294FDF7E5FB00287A
:103E000001D0FDF742FB7FBD002201402C4D002078
:103E10001D4808B5016841F480010160016801F4A2
:103E200080010091016841F40011016000680022E6
:103E3000114600F4001000900C20FEF7C1F90C2090
:103E4000FEF7B0F900220E201146FEF7B9F90E2058
:103E5000FEF7A8F9002238201146FEF7B1F9382004
:103E6000FEF7A0F900223B201146FEF7A9F93B20FE
:103E7000FEF798F9002245201146FEF7A1F9BDE8AA
:103E800008404520FEF78EB9303802400449054805
:103E900010B5FDF7FBFA0249491E087010BD00007D
:103EA00050000020A06A0008F0B587B014216846D1
:103EB000FCF7F0F92D48016841F004010160016848
:103EC00001F004010591016841F001010160016800
:103ED00001F001010591016841F0080101600168EC
:103EE00001F008010591016841F4807101600168E9
:103EF00001F480710591016841F080010160016861
:103F000001F080010591016841F040010160016804
:103F100001F040010591016841F020010160006855
:103F20000022134E022100F0200005903046FEF7DB
:103F3000D8F8104F002240213846FEF7D2F800246E
:103F40006946012502200090CDE9015430460394D2
:103F5000FDF7D4FF40200090CDE901546946384672
:103F60000394FDF7CBFF07B0F0BD000030380240EE
:103F7000002002400018024006480021044B0422A1
:103F8000C0E900318160C1600161C0E9051270477C
:103F9000002C0140D44D002010B588B019480024F1
:103FA00017494FF4D8720094019402940394049436
:103FB00005940694C0E90014C0E90242046144611A
:103FC0008461FFF7EBFA08B1FDF75FFA4FF4805018
:103FD00000900C486946FFF741FB08B1FDF755FA20
:103FE000202004AA010482E81300064804A9FFF770
:103FF000A5FA002801D0FDF748FA08B010BD00006E
:1040000000000140184F00200D48002110B50B4C56
:104010000C224FF4E1330460C0E90131C160C0E912
:1040200004128161C16101624162FFF719FD00283C
:1040300003D0BDE81040FDF728BA10BD007800405D
:10404000584F0020FEE770477047F0B552270770C1
:104050004926467046258570C57000220271572595
:104060004271412682715627C2714FF0450C05728C
:104070004FF0660E46726D258772742480F80BC06F
:10408000202680F80CE010234573012584736427F3
:10409000C673042603744FF0610C42748274C274B8
:1040A000057542758D7D8575C2750D7E05760D8B06
:1040B0002D0A45768D692D0C85768D692D0EC57678
:1040C0000D7F05778D8B2D0A4577CD692D0C857772
:1040D000C969090EC17780F8206080F8212080F836
:1040E000223080F8232080F8247080F825C080F8E2
:1040F000264080F827C080F8282080F8292080F802
:104100002A2080F82B200020F0BD00000148FEF797
:104110002BBF0000D44D002030B585B004463720B9
:1041200040220DF1080CCDE900100023694615016D
:1041300020468CE82C0000F009FB372141F2883240
:10414000204600F0C9F905B030BD000030B50B4A7B
:1041500085B004462920114340220DF1080CCDE919
:10416000001000236946150120468CE82C0000F061
:10417000EDFA204600F066FA05B030BD0000108070
:1041800030B585B0044610200DF1080C8501CDE94D
:10419000001040226946002320468CE82C0000F0E5
:1041A000D5FA102141F28832204600F095F905B089
:1041B00030BD30B585B00446062040220DF1080C14
:1041C000CDE9001000236946150120468CE82C003B
:1041D00000F0BCFA062141F28832204600F07CF95A
:1041E00005B030BD30B585B00546002469464FF4B2
:1041F0008060009401940294CDE90340284600F0C9
:10420000A5FA0B4A4FF4FA5041F288311268B2FB1A
:10421000F0F04843401E03D24FF0004005B030BDDF
:10422000696B0906F6D540F2FF512046A963F5E710
:104230006000002070B50821044685B04FF4D570A9
:104240004026CA018DE8430000256946CDE90352A6
:10425000204600F07BFA0F4A4FF4FA5041F28831C1
:104260001268B2FBF0F04843401E02D24FF0004506
:104270000CE0616B11F0450FF6D0606B400701D583
:10428000042502E0606B400600D5A66305B0284611
:1042900070BD00006000002030B585B004461220DB
:1042A00040220DF1080CCDE90010002369461501EC
:1042B00020468CE82C0000F049FA122141F28832A5
:1042C000204600F009F905B030BD30B585B0044690
:1042D000112040220DF1080CCDE9001000236946A1
:1042E000150120468CE82C0000F030FA112141F233
:1042F0008832204600F0F0F805B030BD30B585B00A
:10430000044640210DF1040C0720009200230D010A
:104310008CE82B006946204600F018FA072141F28C
:104320008832204600F0D8F805B030BD10B586B010
:10433000044600210220C02243020493CDE900106C
:10434000CDE902216946204600F000FA204600F03F
:1043500051F906B010BD30B585B0044609200DF105
:10436000080CC022CDE90010002369464FF4806597
:1043700020468CE82C0000F0E9F9204600F03AF9DC
:1043800005B030BD10B586B0044600213320402270
:10439000CDE90221CDE900101301694620460493BE
:1043A00000F0D4F9332141F28832204600F094F82D
:1043B00006B010BD30B585B004460D2040220DF189
:1043C000080CCDE9001000236946150120468CE851
:1043D0002C0000F0BBF90D2141F28832204600F09C
:1043E0007BF805B030BD30B585B00C4600210546E0
:1043F00003204022CDE90221CDE9001013016946D6
:104400002846049300F0A2F903212246284600F032
:1044100039F905B030BD000010B586B00446002162
:104420000C204022CDE90221CDE90010130169469C
:104430002046049300F08AF9034A0C21204600F03C
:104440004BF806B010BD000000E1F50530B585B0B1
:104450000446192040220DF1080CCDE9001000237C
:104460006946150120468CE82C0000F06FF91921EF
:1044700041F28832204600F02FF805B030BD30B54B
:1044800085B00446182040220DF1080CCDE900103B
:1044900000236946150120468CE82C0000F056F9EF
:1044A000182141F28832204600F016F805B030BDE0
:1044B00070B50A6842624A688262C46AD1E902251C
:1044C000D1E9043624F0F7012A4333431A43114358
:1044D000C162002070BD000010B5444C4FF4FA5387
:1044E0002468B4FBF3F353435B1E02D24FF0004049
:1044F00010BD426B12F0450FF6D0426B520703D548
:1045000004218163084610BD426BD20702D001210D
:10451000816303E00269D2B28A4201D0012010BD5A
:1045200040F2FF518163002100F0F2F83049084267
:1045300001D1002010BD002802DA4FF0007010BD3C
:10454000410001D5402010BD810001D5802010BD63
:10455000C10002D54FF4807010BD010102D54FF4A7
:10456000007010BD410102D54FF4806010BDC10143
:1045700002D54FF4006010BD010202D54FF4805007
:1045800010BD410202D54FF4005010BD810202D58A
:104590004FF4804010BDC10202D54FF4004010BD61
:1045A000410302D54FF4003010BD810302D54FF412
:1045B000802010BDC10302D54FF4002010BD0104BE
:1045C00002D54FF4801010BD410402D54FF4001005
:1045D00010BD810402D54FF4800010BD000702D544
:1045E0004FF4000010BD4FF4803010BD600000207B
:1045F00008E0FFFD124B4FF4FA5141F288321B687C
:10460000B3FBF1F15143491E02D24FF00040704715
:10461000426B12F0450FF6D0416B490703D50421D8
:10462000816308467047416BC90703D0012181634C
:104630000846704740F2FF51816300207047000038
:10464000600000200E4B4FF4FA5141F288321B6893
:10465000B3FBF1F15143491E02D24FF000407047C5
:10466000426B12F0450FF6D0416B490703D5042188
:1046700081630846704740F2FF5181630020704714
:104680006000002030B51F4D4FF4FA5341F28834DA
:104690002D68B5FBF3F363435B1E02D24FF000407D
:1046A00030BD446B14F0450FF6D0436B5B0703D568
:1046B00004218163084630BD436BDB0702D0012132
:1046C000816303E00369DBB28B4201D0012030BD7E
:1046D00040F2FF518163002100F01AF810F4604F9E
:1046E00004D0410406D54FF4005030BD000C1080BA
:1046F000002030BD000402D54FF4805030BD4FF48F
:10470000803030BD60000020006800F0030070477A
:10471000084408B514300090006808BD70B5114316
:104720004268049EDDE90554334347F6FF661943AA
:104730002943B24321430A434260002070BD032154
:10474000016000207047D0F88000704770B50A689B
:104750008260C468D1E90125D1E90336210B2A43DF
:10476000334309031A431143C160002070BD096837
:10477000C0F880100020704710B5064C0120207052
:10478000FCF794FD18B9207820F001002070207803
:1047900010BD00004E00002010B5846BFDF719FA23
:1047A000022827D0E06B406D012803D0206C406DBB
:1047B00001281CD1216840F2FF5088632068C16B3A
:1047C00021F49D71C163A06B40F08040A06320463E
:1047D000FEF7B0FB062801D0052805D12068FFF7B9
:1047E0001BFEA16B0843A063012084F8340020461F
:1047F000FEF790FA10BD10B5846B206B822809D1AA
:104800002068FFF709FE28B1A16B0143A163204690
:10481000FEF780FA2068012140F2FF52C36A23F0BC
:104820000803C3622068826384F834102046FEF7D0
:10483000EBFD10BD70B5846B0025E06B00B1E56346
:10484000206C002816D12046FEF774FB0121A563D9
:10485000062884F8341001D005280BD12068FFF712
:10486000DBFDA16B0843A063A06B0028204602D0AB
:10487000FEF710FA70BDFEF74DFA70BD806B006850
:10488000C16B41F48071C163704770B5846B0025C2
:10489000206C00B12564E06B002816D12046FEF79D
:1048A00049FB0121A563062884F8341001D00528AE
:1048B0000BD12068FFF7B0FDA16B0843A063A06B8C
:1048C0000028204602D0FEF7E5F970BDFEF722FA77
:1048D00070BD2DE9F04F89B00E460446FDF706FC89
:1048E0000027009701970821834620683D46FFF77F
:1048F00047FC002835D1B4F8501020680904FFF7B0
:104900000BFC00282DD14FF008084FF002094FF0A2
:10491000010C421E3023CDE90228CDE90439CDE94E
:10492000067C206802A9FFF7C3FD2068FFF72AFD77
:10493000002816D1EA4640F22A472068416B3942E6
:1049400012D1416B890204D5FFF7FDFE4AF825001C
:104950006D1CFDF7CBFBA0EB0B00401CEDD14FF025
:10496000004009B0BDE8F08F416B090703D5C0F8DE
:1049700038800820F5E7416B890703D5C0F83890E7
:104980000220EEE7416B890603D5202181630846AA
:10499000E7E740F2FF518163009800BA7060019828
:1049A00000BA30600020DCE710B590B0044601206A
:1049B000ADF838002068FFF7A7FE002864D0606CCF
:1049C000032842D02068FFF7B1FC00285AD12068A4
:1049D0000021FFF79DFE606704212068FFF798FE25
:1049E000A06708212068FFF793FEE0670C2120688C
:1049F000FFF78EFE616CC4F88000032925D0206883
:104A00000EA9FFF7F0FC00283CD1606C03281CD0F5
:104A1000BDF83810216520680904FFF79CFC0028C8
:104A200030D120680021FFF773FE60660421206802
:104A3000FFF76EFEA06608212068FFF769FEE066BA
:104A40000C212068FFF764FE206704212068FFF72F
:104A50005FFE000DE06403A92046FEF75CF9B4F8A0
:104A60005000002302042068FFF748FC002809D109
:104A700004F1100007C88DE8070094E80F00FFF765
:104A80004DFE002010B010BD4FF08060FAE700002E
:104A900010490122104810B501F08AF9002818D1F8
:104AA00011480A220DA101F0AFF9002811D10F4AD7
:104AB0000F48A2F12C01FFF761F90C492C220D4B94
:104AC00009482C3901F0EFFA0A49091F08704868B3
:104AD000886310BD50000020FC4A002053616D70B7
:104AE0006C652E576176000070000020CC0200201B
:104AF00020A10700040000202DE9F843002504460A
:104B000000950068FFF76EFB00281BD12068FFF7B7
:104B100091FB4FF080784FF6FF76E0B14FF0805771
:104B2000A5640098B04200F1010000901BD02068FD
:104B30000021FFF7F1FA20B920680021FFF706FBFA
:104B400010B13846BDE8F88320680021FFF7E0FD8A
:104B5000C00FE6D020E00127A7640098B04200F122
:104B60000100009001D14046ECE720680021FFF7EA
:104B7000D3FA0028E6D120684FF08041FFF7E6FA2B
:104B80000028DFD120680021FFF7C2FDC10FE4D06B
:104B9000400001D5676400E065640020D2E71CB5E1
:104BA000044600200090002101902068FFF7B0FD2E
:104BB000800102D54FF400601CBD69462046FFF716
:104BC00088FE0028F8D10198C0030CD5B4F8501025
:104BD00020680904FFF7A0FA0028EDD12068002121
:104BE000FFF7E7FA1CBD4FF080601CBD1CB5044602
:104BF00000200090002101902068FFF789FD8001CE
:104C000002D54FF400601CBD69462046FFF761FEE7
:104C10000028F8D1019840030CD5B4F85010206852
:104C20000904FFF779FA0028EDD120680221FFF787
:104C3000C0FA1CBD4FF080601CBD000070B5FDF7D0
:104C400055FA214C2064A16A401A6064207800283B
:104C500039D1A069012836D11C4902030025A5617C
:104C6000231DA1F5227001F01EFA00282BD16168E6
:104C7000A06B65620844A063E16A606C884222D937
:104C80001348FCF71FFF1348002100F083FF0028A2
:104C900019D10E49A26B2C39A1F12C0000F043FC74
:104CA0000A49231D0B482C22583901F0FCF9002831
:104CB00009D1084800F05AFFBDE8704001220648BB
:104CC0000221FDF70EBA70BD00000020F80200209E
:104CD0002C4D0020700000200020024070B5064CD2
:104CE000054601202070FCF7EDFA18B92846FFF7B9
:104CF00043FD2070207870BD4E000020144810B590
:104D000088B014460078C00702D0032008B010BD58
:104D100039B1012907D002290BD0032910D0042072
:104D2000F4E70020F2E76846FCF7BAFA069900209B
:104D30000CE06846FCF7B4FA079900202180E5E70B
:104D40006846FCF7ADFA07990020490A2160DDE7C3
:104D50004E00002010B5144608461A462146FCF7BE
:104D6000CBFA002800D0012010BDFFF705BD10B51B
:104D7000144608461A462146FCF7EAFA002800D0F5
:104D8000012010BD7047FDF7B7B9000070B5B4B091
:104D9000302121A8FBF77EFA14212DA8FBF77AFA1F
:104DA00084216846FBF776FA1E48016841F080517D
:104DB0000160006800F0805032901B48016841F4A7
:104DC0004041016000680024102100F4404032900E
:104DD000022521950120CDE92754CDE9240129A9F7
:104DE0000822D823092681E86C0021A8FDF7B6FD2A
:104DF000FDF718FAEA022F944FF4A0510F20CDE9E5
:104E00003012CDE92D0507212DA8FDF7BFFC07487D
:104E100017941F94209400906846FDF739FA34B037
:104E200070BD000040380240007000400010A0003B
:104E3000104A30B51048146800210F4B44F4700438
:104E40001460083305680D4A0D4C45F001050560F6
:104E500019600368051D1340074A03600C322C607B
:104E60000568E305034C25F480250560803C11604E
:104E7000236030BD88ED00E000380240FFFFF6FE01
:104E8000103000240148FEF758BC0000184F0020E5
:104E90000148FEF752BC0000184F00200148FEF701
:104EA0004CBC0000184F0020F0B5274B4FF0804E4F
:104EB000264D02689842264E264F274C09D0704551
:104EC00007D0A84205D0B04203D0B84201D0A042DA
:104ED00005D1D1F804C022F070024CEA02029842D7
:104EE0001BD0704519D0A84217D0B04215D0B84297
:104EF00013D0A04211D0194DA8420ED0184DA8428F
:104F00000BD0184DA84208D0174DA84205D0174D18
:104F1000A84202D0164DA84203D1CD6822F44072B7
:104F20002A434D6922F080022A43026098428A682F
:104F3000C2620A68826201D0A04201D1096901639C
:104F400001214161F0BD000000000140000400406B
:104F500000080040000C00400004014000400140F7
:104F6000004401400048014000180040001C00407F
:104F70000020004042EA032283680A4323F47F4171
:104F80000A4382607047826822F070020A4342F04E
:104F900007018160704710B5036A046A23F00A03B1
:104FA00024F00104046284690B4324F0F00141EA17
:104FB00002118161036210BD10B5036A23F0100372
:104FC00003628369046A23F4704324F0A00443EA73
:104FD0000232826144EA0111016210BD0148FEF70C
:104FE000ABBC0000584F002090F82410C90706D031
:104FF0000168836A4A6822F400321A434A6090F8D2
:105000002410890706D50168C36A4A6822F48032F1
:105010001A434A6090F82410490706D50168036BCB
:105020004A6822F480221A434A6090F82410090743
:1050300006D50168436B4A6822F400421A434A606D
:1050400090F82410C90606D50168836B8A6822F49B
:1050500080521A438A6090F82410890606D50168A8
:10506000C36B8A6822F400521A438A6090F82410B5
:10507000490611D50168036C4A6822F480121A436C
:105080004A60016CB1F5801F06D10168436C4A6823
:1050900022F4C0021A434A6090F82410090606D58B
:1050A0000168826C486820F4002010434860704713
:1050B00038B500250446C567FDF718F80346206893
:1050C000006800070BD56FF07E400090002220465C
:1050D0004FF4001100F0F6F908B1032038BD20208C
:1050E000606784F87050A067002038BD10B5806BF1
:1050F0000021A0F85A10A0F85210FEF71BFC10BDBA
:1051000070B5846B00252168606FA66F89680906F9
:1051100006D5212804D1A4F85250204600F061F8A9
:1051200020688068400606D5222E04D1A4F85A5083
:10513000204600F046F8E06F40F01000E06720469F
:10514000FEF7F8FB70BD10B5C169806BB1F5807FCB
:1051500013D00021A0F85A10202201680B6823F414
:1051600080730B6001688B6823F001038B6001681A
:105170008B6823F040038B608267FEF767FD10BDEC
:1051800010B5806BFEF798FD10BD10B5C169806B3E
:10519000B1F5807F0DD00021A0F8521001688A6817
:1051A00022F080028A600068016841F040010160DD
:1051B00010BDFEF7CDFD10BD10B5806BFEF7DCFD18
:1051C00010BD10B50168202200230C6824F49074EF
:1051D0000C6001688C6824F001048C6082670366AF
:1051E00010BD016820220B6823F0C0030B604267EA
:1051F000704700000A4906220A4810B5FEF7D8FC9D
:105200000748A0F10C01A0F148024379CB70037963
:105210008B70C3784B7080780870D06BD06210BDF3
:1052200048000020584F00202DE9F04104468068D6
:10523000DFF818C2864F2368D4E90452E169284395
:105240001E6800250A438349104306EA0C060643FC
:105250001E604FF400422068E668436823F4405320
:10526000334343602368A669206AD3F808C03043FB
:105270002CF4306606439E602068B8420AD1086864
:1052800010F0030052D001287BD002287AD00328E6
:105290006ED186E0704B98420AD1086810F00C007D
:1052A00079D004287BD0082877D00C2860D178E00A
:1052B0006A4B98420AD1086810F030006BD0102871
:1052C0006DD0202869D0302852D16AE0644B9842D2
:1052D0000AD1086810F0C0005DD040285FD0802857
:1052E0005BD0C02844D15CE05E4B98420DD1086889
:1052F00010F440704FD0B0F5807F50D0B0F5007FF3
:105300004BD0B0F5407F33D14BE0574B98420FD193
:10531000086810F4406009D0B0F5806F3FD0B0F558
:10532000006F3AD0B0F5406F22D13AE0012120E081
:105330004E4B98420DD1086810F440502BD0B0F578
:10534000805F2CD0B0F5005F27D0B0F5405F0FD163
:1053500027E0474B98420BD1086810F440401AD020
:10536000B0F5804F1BD0904217D0B0F5404F18D009
:105370001021E0694FF6EF76904238D109295DD2CD
:1053800002E00CE009E006E0DFE801F00D1027582C
:105390002A5858582D000021EBE70221E9E70421A3
:1053A000E7E70821E5E7FDF787FA01E0FDF794FA62
:1053B0000146D4F80400490001EB5001B1FBF0F0C4
:1053C00080B2A0F11001B14238D84FF6F0732168D5
:1053D000C0F342021840104324E026496068EBE71E
:1053E000FDF78AFAE4E760684FF48031E4E70929C1
:1053F00024D2DFE801F0050819231C2323231F0012
:10540000FDF75AFA01E0FDF767FA0146D4F8040007
:1054100001EB5001B1FBF0F080B2A0F11001B142FC
:105420000CD82168C8600AE013496068F0E7FDF70E
:1054300063FAEAE7606802EB5001EBE70125002020
:10544000206660662846BDE8F0810000F369FFEF42
:1054500000100140903802400044004000480040E5
:10546000004C004000500040001401400078004013
:10547000007C00400048E8010024F4000E494FF48D
:10548000006210B501F58050FAF7EBFE0B4873246B
:1054900074236F22702180F8004880F8013880F86A
:1054A000022840F6040280F803180146BDE81040C7
:1054B0000348FEF703BC0000F8320020F842002049
:1054C000584F00202DE9F041984617460E460446F5
:1054D000069D08E0681C06D0FCF708FEA0EB08005B
:1054E000A8420BD855B12068C06936EA000017D031
:1054F0000020B842EED00020BDE8F08121682020D5
:1055000000220B6823F4D0730B6021688B6823F0B2
:1055100001038B606067A067032084F87020EBE7CD
:105520000120E6E7FEE770B5A2F1080101712C3A0F
:105530000B0A43710C0C84710D0EC57180F8282084
:10554000160A110C80F82960130E80F82A1080F8D2
:105550002B30002070BD090700284FEA116104DBE1
:1055600000F1E02080F80014704700F00F0000F117
:10557000E02080F8141D704710B52DED028BB1EEC0
:10558000C08A18EE100A20F00040C0F1FF40C00FA2
:105590000AD010EE100A20F00040C0F1FF40C00F0A
:1055A00004BF012000F014F8B0EE480ABDEC028BF5
:1055B00010BD02E008C8121F08C1002AFAD17047C6
:1055C0007047002001E001C1121F002AFBD1704783
:1055D00001490860704700006C00002010B50446C7
:1055E0000022501EE270E062204601F0E6F808B1A9
:1055F000042010BD04F22E2001F060F8A0F52A412D
:10560000553901D0032010BD94F83000E92805D0A9
:10561000EB2814D194F83200902810D104F16600E0
:1056200001F041F80749B1EB002F06D004F18200E8
:1056300001F039F80449884201D1002010BD022050
:1056400010BD00000046415446415433F0B5154D9D
:105650000022134605EB021426685EB10768BE42BD
:1056600009D166688768BE4205D1A4684669B4421C
:1056700004D000E00123521C022AEBD3022A01D0FD
:1056800069B904E04BB9022907D01220F0BD05EB3F
:1056900002108089B0F5807F01D00020F0BD10207D
:1056A000F0BD00009850002030B5064B0024214684
:1056B00003EB01121568854200D11460491C0229D0
:1056C000F6D330BD98500020C26A490A006840896C
:1056D000B1FBF0F0121D02CA19B1884203D3401A7F
:1056E000F8E7002070471168084470474269891E36
:1056F000921E8A4201D800207047826A408901FBCD
:10570000002070472DE9F04105680F00804606D063
:1057100000F0F6FE022809D20120BDE8F081EE6813
:1057200016B16869B04207D8012605E0411CF4D0E3
:1057300069698142F1D83E4634466869641CA042DA
:1057400003D8022E4FF002040AD32146404600F04F
:10575000D7FE38B10128E0D0411CDED0B442ECD1F4
:105760000020DAE74FF0FF3621463246284601F0A6
:105770003DF830B957B122463946284601F036F88F
:1057800020B101280FD001242046C6E7D5E9040145
:10579000EC60891E884201D8401E2861287940F0BB
:1057A00001002871F0E73446EEE700002DE9F041F2
:1057B00024300D680B220E462021044600F0F6FF2F
:1057C00000204FF0080C01462A5C401C202A13D907
:1057D0002F2A0CD05C2A0AD02E2A01D0614516D37C
:1057E000BCF10B0F20D02E2A1ED10CE0401C2B5CEC
:1057F0002F2BFBD05C2BF9D028443060A1B120784E
:10580000E5281DD01EE008214FF00B0CDCE7802AB4
:1058100003D3104B1A4412F8802C0FA300E05B1C3A
:105820001F7827B19742FAD10620BDE8F081A2F196
:105830006103192B01D8203AD2B26254491CC3E744
:1058400005202070202A01D8042000E00020E0720A
:105850000020EAE7D46A0008222A2B2C3A3B3C3D80
:105860003E3F5B5D7C7F0000401E022812D20A4949
:1058700001EB00118889B0F5807F05D008B1401E8A
:1058800080B2888110B103E00020FAE700200860B0
:105890000020704702207047985000202DE9F04109
:1058A00005680021044600F0DAF8002827D1E169F4
:1058B000284600F082FF020020D1206A0178A1B1C1
:1058C000C17A01F03F01A171C17A090710D40B23FD
:1058D00004F1240110F8016B5B1E11F8017BA6EBAB
:1058E000070604D0002EF5D002E0042206E02EB117
:1058F0000021204600F006F80200D8D01046BDE88E
:10590000F08100002DE9F04705464769C0698946E6
:1059100020372C6810B1B7F5001F02D30420BDE872
:10592000F087F90560D1A969401C4FF00008E861D3
:1059300029B16089401E10EA572F05D054E0208914
:10594000B0EB571F1DD94FE0284600F0D9FD0128C4
:1059500006461BD9701C33D06069B0423ED8B9F1FD
:10596000000F0ED0A9692846FFF7CCFE06000BD029
:10597000012E0BD0701C23D0204601F04DF8F8B951
:1059800006E0C5F81C80C9E70720C8E70220C6E783
:1059900000214FF4007204F1300000F007FF4FF0D7
:1059A000000831462046FFF7A1FE4FF00109E062F2
:1059B0000DE000BF204684F8039001F02DF808B1F7
:1059C0000120ACE7E16A08F10108491CE162618944
:1059D0004145EFD8E16AA1EB0800E062314620467C
:1059E000AE61FFF783FEE861C7F3080020446F61F2
:1059F00030302862002092E770B506680021044626
:105A000000F02DF80DE0E169304600F0D6FE50B907
:105A1000206A0078E52809D040B101212046FFF72F
:105A200071FF0028EFD0042807D007E0E169304675
:105A300000F0C3FE050003D00FE0072005460CE090
:105A4000206A2022002100F0B1FE206A0B2204F11E
:105A5000240100F0A1FE0120F070284670BD2DE960
:105A6000F0410768B1F5001F0E46054636D2F00634
:105A700034D1AC686E6124B93878032805D37C6AC8
:105A80001CB178894FEA402812E03889B0EB561FE4
:105A900024D9786A12E0284600F032FD0446401C02
:105AA0001AD0022C1AD37869A04217D9A6EB08069F
:105AB00021464645EFD23846FFF718FEC5E90640B5
:105AC00060B100EB5622C6F30801C8193030C5E9B1
:105AD00007200020BDE8F0810120FBE70220F9E764
