:020000040800F2
:10000000287B0420A1020008B3430008E140000857
:10001000B1430008F5170008C558000800000000AB
:10002000000000000000000000000000DD010008EA
:10003000D9180008000000003902000861510008CA
:10004000BB020008BB020008BB020008BB0200089C
:10005000BB020008BB020008BB020008BB0200088C
:10006000BB020008BB020008BB020008BB0200087C
:10007000BB020008BB020008BB020008BB0200086C
:10008000BB020008BB020008E9150008BB0200081B
:10009000BB020008BB020008BB020008BB0200084C
:1000A00089520008A152000895520008BB020008BE
:1000B000BB020008BB020008BB020008BB0200082C
:1000C000BB020008BB020008BB020008BB0200081C
:1000D000BB020008BB020008BB020008BB0200080C
:1000E000BB020008BB020008BB020008BB020008FC
:1000F000BB020008BB020008BB020008BB020008EC
:10010000BB02000879440008BB020008BB020008DB
:10011000BB020008BB020008AD520008BB02000889
:10012000F917000805180008BB020008111800089C
:10013000BB020008BB020008BB020008BB020008AB
:10014000BB020008BB020008BB020008BB0200089B
:10015000BB0200081D18000829180008B95800083B
:10016000BB020008BB020008BB020008BB0200087B
:10017000BB020008BB020008BB0200080000000030
:10018000BB020008BB020008BB020008BB0200085B
:10019000BB020008BB020008BB020008BB0200084B
:1001A000BB020008BB020008BB020008BB0200083B
:1001B000BB020008BB020008BB020008BB0200082B
:1001C000BB020008BB020008DFF80CD000F004F905
:1001D00000480047156F0008287B04202D4B196844
:1001E0000868B0E8F04F80F30988BFF36F8F4FF0D5
:1001F000000080F311887047000000000848006884
:10020000006880F308884FF0000080F3148862B61D
:1002100061B6BFF34F8FBFF36F8F00DF00BF00BF2A
:1002200008ED00E0DFF80C00016841F470010160A6
:10023000704700BF88ED00E0EFF30980BFF36F8FD8
:10024000144B1A681EF0100F08BF20ED108A20E929
:10025000F04F106009B44FF0500072B680F311886F
:10026000BFF34F8FBFF36F8F62B608F0D1F94FF035
:10027000000080F3118809BC19680868B0E8F04FE5
:100280001EF0100F08BFB0EC108A80F30988BFF38E
:100290006F8F704764000020EFF305807047000007
:1002A0000648804706480047FEE7FEE7FEE7FEE710
:1002B000FEE7FEE7FEE7FEE7FEE7FEE73552000851
:1002C000C90100082DE9F05F0546002092469B46D3
:1002D00088460646814640241BE02846414647465C
:1002E000224600F069F853465A46C01A914110D38D
:1002F00011461846224600F050F82D1A67EB010807
:100300004F4622460120002100F047F817EB000974
:100310004E41201EA4F10104DFDC484631462A4646
:100320004346BDE8F09F40EA01039B0703D009E084
:1003300008C9121F08C0042AFAD203E011F8013BD1
:1003400000F8013B521EF9D27047D2B201E000F82A
:10035000012B491EFBD270470022F6E710B5134669
:100360000A4604461946FFF7F0FF204610BD30B597
:100370000B46014600202022012409E021FA02F563
:100380009D4205D303FA02F5491B04FA02F52844FD
:10039000151EA2F10102F1DC30BD202A04DB203A57
:1003A00000FA02F1002070479140C2F1200320FAC8
:1003B00003F3194390407047202A04DB203A21FAC6
:1003C00002F00021704721FA02F3D040C2F120026E
:1003D0009140084319467047064C074D06E0E06817
:1003E00040F0010394E8070098471034AC42F6D37C
:1003F000FFF7EEFE08C8010828C80108B0B50029BB
:1004000021D0002302EB430C32F813E0BCF802C009
:1004100002332EF0030E2CF0030C50F80E4050F86F
:100420000C508B4240F80E5000EB0E0540F80C408B
:1004300000EB0C04D5F804C0D4F804E0C5F804E0DF
:10044000C4F804C0DED3B0BD2DE9F04104881646DF
:100450000746012A98460D460CD1E4B3281D2146D3
:1004600090ED000AB1EE400A013980ED000A00F17A
:100470000800F5D1FF2C0CDDB4F5806F10DBB4F56E
:10048000805F22D0B4F5006F11D0B4F5806F17D023
:1004900021E03F2C10DC102C12D0202C07D01AE0C9
:1004A000B4F5807F03D0B4F5007F0ED013E038465A
:1004B000294600F0F7F80EE0402C06D0802C0AD137
:1004C0003846294600F02EF805E07A6801232846D0
:1004D000214600F0D5FBB8F1000F04D0B9892846B9
:1004E000BA68FFF78BFF012E1AD100EE104A002CDC
:1004F000B8EE400A14D0B7EE001A81EE000A00BF31
:1005000095ED001A95ED012A20EE011A013C20EE2E
:10051000422A85ED001A85ED012A05F10805EFD183
:10052000BDE8F0812DE9F0472DED068B038880466C
:100530000020D8F80420B0EBD30F084601EB830A63
:100540004FEA530900F09E80D9080AEB890C00EBB2
:10055000890E4C42002700BFC3190AEB070593ED33
:10056000000A95ED004A30EE048A0EEB07010CEB11
:10057000070630EE440A93ED011A93ED022A93ED3B
:10058000033A95ED015A95ED026A95ED037AD1EDA6
:10059000000AD1ED011AD1ED022AD1ED033AD6EDD0
:1005A000004AD6ED015AD6ED026AD6ED037A31EE55
:1005B000059A83ED008A32EE06AA013433EE078AEB
:1005C00083ED019A30EEA49A83ED02AA31EEA5AA3A
:1005D00083ED038A32EEA68A33EEA74A81ED009AB4
:1005E00031EE451A81ED01AA81ED028A02EB070383
:1005F00081ED034A34EEE05AD3ED000A35EEE14ACC
:1006000007F1100761EE201AD3ED014A21EE241AFA
:1006100040EE641A65EE245A64EE244A00EE201A75
:1006200044EE605A45EE204A32EE460A85ED001A45
:1006300033EE471AC5ED011A36EEE22AC6ED005A2E
:1006400037EEE33AC6ED014A93ED034A93ED026AB1
:1006500021EE045A21EE061A22EE047A63EE040A11
:1006600000EE065A00EE441A03EE467A42EE060AFF
:1006700085ED025A85ED031A86ED027AC6ED030A6E
:100680007FF46AAF0223494600F0FAFAD8F8042052
:10069000022350464946BDEC068BBDE8F04700F00A
:1006A000EFBA00002DE9F04F81B02DED0C8B90B02A
:1006B0008446008891ED000A420801EB820404EBB5
:1006C000820591ED011A95ED002A95ED013A30EE83
:1006D000024A0F4630EE420A05EB820631EE032A4B
:1006E000910031EE431A0F9194ED003A94ED015AC6
:1006F00030EE056A810871EE430A009174EE432AD8
:100700006FF0010172EE453A01EB900A30EE450AB6
:10071000D00034EE034A6FF0070832EE052A0E903F
:1007200031EE031A02EB420196ED007AD6ED011A82
:1007300036EE616A08EB021070EE870A4FEA810913
:1007400072EEC72A0C9073EEE13A059730EE210A5B
:1007500008EB810334EE073A6FF0030132EE212AF1
:10076000029431EE471A01EBC20E87ED003A4FF0CA
:10077000000B87ED012A002784ED006AA7EB5A0AD7
:10078000C4ED010A01EB8204C5ED002A0020C5ED8D
:10079000013A86ED000A86ED011ADCF80410039593
:1007A0000196CDF810C006910D90C1E0C518CDF8A6
:1007B000249000EB0409CDF81CA099ED006A95ED9A
:1007C000017A76EE070A00EB0E01D1ED002AF2461F
:1007D000DDF830E070EEA23A089400EB0E0436EE3D
:1007E000476AD4ED015A73EEA53A0F9859ED011AF4
:1007F000D5ED004A71EEA46A083051ED017A94ED0E
:10080000008AC9ED003A71EEE41A51ED013A76EE34
:10081000A33AAEF1080E94ED007A32EEE59AAAF111
:10082000080A33EE877A083B76EE673A31EE89BAEA
:1008300009ED017A33EE887ADDF82490D6ED023A9C
:10084000D6ED034A25EE24AA0F9025EE235A0E98E2
:1008500027EE24CA08302BEE24DA0E9004EE23AAE9
:100860000D9804EE645A183030EEE24A0D9076EEA0
:10087000E70A82ED02AA0BEE63CA82ED035A07EE85
:1008800023DA09F1080934EE654A70EEC80A81EDF1
:1008900000CA01ED01DA97ED045A97ED057A63EE8F
:1008A000072A0B9F23EE053A083760EE873A64EE7D
:1008B000074A42EE052A02EE473A54EE453A40EE28
:1008C000C54ACCED022A38EE674A8CED033AC5EDF5
:1008D000013A39EE615AC5ED004A9BED062A21EE38
:1008E000027A34EE464A9BED073A21EE031ADDF810
:1008F00028B000EE437ACDF830E024EE036AD64605
:1009000025EE033ADDF81CA000EE021A0BF1100BE5
:1009100005EE426A0AF1010A04EE023A88ED021A73
:1009200088ED037A84ED016A84ED003A089C083C66
:100930000598BAF1000F0E9A00EB070100EB020CCC
:100940000F9A91ED020A9CED022A30EE026A0244EF
:1009500030EE420A00EB090891ED031A9CED033AD0
:1009600092ED032A31EE037A069D31EE431A0B977E
:1009700030EE023ACDF828B0D2ED020AD8ED032AC3
:1009800033EE624A05EB070636EE603A05EB0B07DD
:1009900036EE206AD8ED021A31EE605A36EE216A40
:1009A00077EE423A30EE420A81ED026A31EE201AC9
:1009B00092ED036A37EE066A98ED037A35EE215A16
:1009C00036EE076A33EE612A33EEE23A30EE220A5F
:1009D00081ED036A31EE611A0D9905EB010B7FF48D
:1009E000E5AE96ED026A96ED037A65EE070A009D84
:1009F00025EE065A0423294644EE060A04EE475A19
:100A0000C2ED020A82ED035A97ED044A97ED055AAA
:100A100023EE056A069A23EE043A02EE046A02EE19
:100A2000453A8CED026A8CED033A9BED062A9BED6C
:100A3000073A21EE034A21EE021A00EE024A00EEC6
:100A4000431A88ED024A88ED031A00F019F9049C54
:100A5000042362682946029800F012F962680423B0
:100A60000398294600F00CF962680423019829468E
:100A700010B0BDEC0C8B01B0BDE8F04F00F000B938
:100A80002DE9F04381B02DED028B0023B3EB920FE3
:100A900090460C46054669D04FEA9800474200BF91
:100AA00095ED010A20EE008A95ED000A00EE008A1D
:100AB000B0EE480A04F049FFB4EEC00AF1EE10FAB5
:100AC00003D7B0EE480A04F040FF84ED000A95ED2C
:100AD000030A20EE008A95ED020A00EE008AB0EECD
:100AE000480A04F032FFB4EEC00AF1EE10FA03D760
:100AF000B0EE480A04F029FF84ED010A95ED050ADD
:100B000020EE008A95ED040A00EE008AB0EE480A55
:100B100004F01BFFB4EEC00AF1EE10FA03D7B0EEFA
:100B2000480A04F012FF84ED020A05F1200995ED50
:100B3000070A20EE008A04F1100695ED060A00EE81
:100B4000008AB0EE480A04F000FFB4EEC00AF1EEED
:100B500010FA03D7B0EE480A04F0F7FE013784ED2F
:100B6000030A4D4634469BD134464D4618F00300E7
:100B70001DD0464295ED010A20EE008A271D95ED15
:100B8000000A00EE008AB0EE480A04F0DEFEB4EE81
:100B9000C00AF1EE10FA03D7B0EE480A04F0D5FE11
:100BA000013684ED000A05F108053C46E2D1BDECB2
:100BB000028B01B0BDE8F083F0B54C1E4FF0000C85
:100BC000BCEB940F90ED000A00F1040E3AD0012620
:100BD0002546A70866F301057E424FF0000C042766
:100BE0009EED001A9EED012A80FE014AB4EEC10A74
:100BF0009EED023AF1EE10FA84FE021AB4EEC24AF9
:100C00009EED030AB8BFA7F1030CF1EE10FA81FEC6
:100C1000032AB4EEC31A0EF1100EB8BFA7F1020CEE
:100C2000F1EE10FAB4EEC02A82FE000AB8BFA7F1B6
:100C3000010CF1EE10FAB8BFBC4604370136CFD133
:100C400000EB850E14F0030012D040429EED001A16
:100C5000B4EEC10A80FE011A0EF1040EF1EE10FA94
:100C6000B8BF01EB000CB0EE410A0130EED101E05B
:100C7000B0EE401A82ED001AC3F800C0F0BD0000CB
:100C80002DE9F04F81B02DED108B96B0CDE90332F8
:100C9000019004309FED020A8C460290149101E00D
:100CA000F304353F4FEADC084FEAC80ACDF81C8050
:100CB000AAEBDC00C00008EB480E139008EB88029A
:100CC0004FEACC074FEA0E14D000029A4FEA4813BD
:100CD00015904FEA08160D934FEACE054FF0000B22
:100CE000CDE90B5602EB0309159812ED011A19ED27
:100CF000013A02EB0A0831EE035A02EB000E0B98A0
:100D000018ED016A31EE431A91191EED013A1319DB
:100D100076EE031A564636EE433A02EB000A139873
:100D200051ED012A13ED016A104472EE863A5AED34
:100D3000014A32EEC66AE34450ED012A74EEA25A2B
:100D40003D4674EEE22A75EE634A35EE235A71EEA3
:100D5000A53A92ED002A99ED004A98ED007ADEED71
:100D6000000AD1ED006A71EEE51A75EE235A35EEF0
:100D7000635A72EE043A32EE442A37EE204A37EED6
:100D8000607AD3ED000A76EEA07A76EEE00ADAED2C
:100D9000006A90ED008A36EE889A42ED015A76EEAE
:100DA000C86A09ED015A33EEA78A34EE09AA73EE38
:100DB000E73A34EE494A78EE0A7A38EE4A8A33EE58
:100DC00062AA34EE849AC2ED007A34EEC44A89ED08
:100DD000008A73EEE14A3A4471EEA31A01ED019ADA
:100DE00033EE223A6AEE002AC1ED004A77EE663A07
:100DF00003ED014A37EE267AC3ED001A71EE626AFE
:100E0000149931EE221A0D9B23EE003A8B4563EEC6
:100E1000802A27EE007A76EE433A36EE033A32EE37
:100E2000625A30EE876A32EE222A30EEC77A71EECD
:100E3000060A32EE434A31EE461A33EE022A48EDF4
:100E4000010A36EE873A88ED004A00ED011A35EEC8
:100E5000631A80ED002A36EEC72A0EED013A33EE12
:100E6000853A8EED001A0AED012A8AED003AB24663
:100E70000C9EFFF437AFBCF1400FC0F08B810EA881
:100E800080E890140398002480B2019E012506900A
:100E90000798C0EBC000C000059000BF069804444E
:100EA000049B03EBC4010A9491ED000A03EB0412C6
:100EB0008DED130A92ED000A04EB44028DED120A47
:100EC00003EB441108964FEAC20A099503EBC200EE
:100ED00091ED004A04EB84014FEA021B03EB02127E
:100EE00090ED003AC80003EBC10192ED006AC4EB3B
:100EF000C4024FEAC40C91ED005AD10003EBC202C8
:100F000092ED007A0CF104024FEA041E1A44D2ED6D
:100F1000000A0EF1040204301A441844D2ED001AFB
:100F20000AF10402D0ED004A0BF104004FEA441923
:100F30001A441844D2ED002A09F10402D0ED005AF7
:100F4000081D1A441844D2ED003AD0ED006AB446A8
:100F50002B460D9D9FED921ADDE90B76DDF814808E
:100F600010980CEB05010CEB00021598DCED027AF1
:100F700091ED028A60440E9C37EE88BA0CEB060BAA
:100F800077EEC87A0CEB040992ED028A90ED029A92
:100F900038EE09CA0CEB070E38EE49AA0CEB080A2A
:100FA0009BED028A99ED029A38EE09DA38EE499AF9
:100FB0009EED028A9AED02EA38EE0EFA7BEE0D8A79
:100FC00038EE4EEA7CEE0F9A3BEE4DBA3CEE4FCA3D
:100FD00038EEA98A38EEE9DA9CED03FAD1ED038AFE
:100FE0007FEE289A3FEE68FAD2ED038AD0ED03AA8D
:100FF00078EEAABA78EEEA8ADBED03AAD9ED03CA45
:101000007AEEACDA7AEEECAADEED03CADAED03EAA8
:101010007CEEAEFA8CED028A7CEEEECA79EEEDEA59
:101020003BEEEF0A79EEAD9A7BEEAFBA7BEE00DADB
:101030003BEE400A39EEEBBA9DED122A79EEAB9AFF
:101040007EEECCBA63EE8BFA3CEE2ECACCED039A60
:1010500024EE0BBA62EE2DEA44EE0DFA03EECDBAA1
:1010600022EE2BDA41EEABEAC1ED02FA66EE00BAEF
:1010700081ED03BA01EEEDDA66EE0CDACBED02EAB1
:1010800045EE8CBA3AEE4ECA8BED03DA45EEC0DA85
:101090003AEE0E0AC9ED02BA2CEE01AA38EEECCAFD
:1010A000C9ED03DA38EEACEA77EECA8A77EE8A7ACF
:1010B00020EE010A2CEE01AA2EEE01CA39EE40EA1A
:1010C00039EE000A3FEE4A9A7AEE8CCA3FEE0AAA3F
:1010D0003AEECCCA37EEACFA77EEEC7A78EE8CAA20
:1010E00038EECCCA7AEE408A30EE0A0A39EE4EAAC1
:1010F0009DED132A26EE808A27EE000A60EEA8CA2C
:101100003EEE099A22EE28EA07EE278A24EE8ABAF2
:1011100006EEE70A65EE0A7A42EE0FCA00EECFEA63
:1011200005EE2ABA44EEEA7AC2ED02CA22EE89AA94
:1011300082ED03EA23EE099A8AED028A8AED030A18
:1011400080ED02BA03EE0CAAC0ED037A02EECC9A4F
:1011500011980344149883420F9884448EED02AA98
:101160008EED039AFFF4FCAE099D01350798089EA9
:10117000854206F108060A9CFFF490AE11983F28BC
:1011800003984FEAC000DDF81CC09FED050A0390EC
:101190003FF688AD16B0BDEC108B01B0BDE8F08F06
:1011A000F304353FC8B14FF4007101804FF4806102
:1011B00001824FF4E071818143F688214CF686125A
:1011C000C0F60101C0F60002C0E9011244F6882110
:1011D000C0F601014161002000E0FF2040B27047ED
:1011E000C8B14FF4806101804FF4006101824FF477
:1011F000E16181814CF6085149F61E02C0F60001FA
:10120000C0F60002C0E9011245F68821C0F60101CE
:101210004161002000E0FF2040B27047B8B180215A
:1012200001804FF480710182D02181814EF60851F6
:101230004AF22E62C0F60001C0F60002C0E90112B7
:1012400047F68821C0F601014161002000E0FF203F
:1012500040B27047B0B110210180202101821421D9
:1012600081814FF208114AF2CE72C0F60001C0F639
:101270000002C0E9011247F68861C0F60101416130
:10128000002000E0FF2040B27047C8B14FF4006179
:1012900001804FF4805101824FF46E6181814FF2E1
:1012A00088114AF2F672C0F60001C0F60002C0E9E9
:1012B000011247F60871C0F601014161002000E00B
:1012C000FF2040B27047C8B14FF4807101804FF4E5
:1012D000007101824FF4DC71818143F288114CF27C
:1012E000B652C0F60101C0F60002C0E901124BF689
:1012F0000871C0F601014161002000E0FF2040B20A
:101300007047B0B1202101804021018230218181CC
:1013100043F688114CF62612C0F60101C0F6000211
:10132000C0E901124CF20871C0F6010141610020D0
:1013300000E0FF2040B27047F0B581B00446008A5B
:10134000002B4FEA5000154620800F460ED0204655
:1013500039462A461E4600F057F801232046294602
:10136000324601B0BDE8F040FFF76EB8002201231D
:1013700020463946FFF768F8204639462A4601B02C
:10138000BDE8F04000F096B8B1F5007F0DDBB1F597
:10139000006F16DAB1F5007F1ED0B1F5806F2AD14B
:1013A00041F2A511C0F600010847202919D04029B3
:1013B00024D0B1F5807F1ED141F21D21C0F600017D
:1013C0000847B1F5805F11D0B1F5006F13D141F23C
:1013D000E111C0F60001084741F2C721C0F6000143
:1013E000084741F25521C0F60001084741F28B2120
:1013F000C0F6000108474FF0FF30704741F203315B
:10140000C0F600010847000091ED000A91ED011AB5
:1014100030EE012A038830EE411AB6EE000AD0F809
:1014200014C0581E22EE002A21EE001A82ED002A76
:1014300082ED011A08BF704780B501EBC00E01F1C3
:1014400008000CF108010832C3F1010C0EF104038D
:10145000BDE8804013ED011A93ED002A90ED003AAB
:1014600090ED014A33EE417A083031EE031A1CF157
:10147000010C34EE423AA3F1080391ED005A91EDCC
:10148000016A32EE042A01F1080107EE451A07EE5F
:10149000063A02EE461A05EE423A21EE001A23EE13
:1014A000002A82ED001A82ED012A02F10802D1D150
:1014B0007047000010B591ED000A91ED011A30EE71
:1014C000000AB0F800E031EE011A406901EBCE04E9
:1014D00000F1080C30EE012A083130EE411AB6EE68
:1014E000000A02F10803201F22EE002A21EE001A52
:1014F00082ED002A82ED011ACEF1010210ED011AEF
:1015000090ED002A91ED003A91ED014A31EE437AD7
:10151000083131EE031A013234EE423AA0F10800EC
:101520009CED005A9CED016A32EE042A0CF1080C85
:1015300007EE051A07EE063A02EE061A05EE423AE3
:1015400021EE001A23EE002A83ED001A83ED012A12
:1015500003F10803D2D110BD10B50146806B026CB7
:1015600012F0500F05D0026CD20626D500F0C4FA56
:1015700010BD016C41F40071016401688A6812F0C9
:10158000405F17D18269AAB9CA6A12F4700F02D0FB
:101590008A6852050ED44A6822F020024A60016C23
:1015A00021F480710164016CC90403D4016C41F021
:1015B0000101016400F06AFA10BD806BC26C08463C
:1015C000BDE81040104710B5806B40210164416CAC
:1015D00041F00401416400F08FFA10BD10B5806B3A
:1015E00000F072FA10BD0000014800F086BA000059
:1015F000202701204A496FF0706210B5D1F80433FA
:1016000023F44033C1F80433D1F80433446823434E
:10161000C1F8043301684B6823F480734B600168A0
:1016200003694C6844EA03234B6001684B6823F06C
:1016300040734B60016884684B6823434B600168CA
:101640008B6823F400638B600168C4688B68234354
:101650008B60816AD14201688A6822F070628A6078
:1016600001680DD0836A8A681A438A6001688A68B3
:1016700022F040528A600168C36A8A681A4302E015
:101680008A6822F040528A6001688A6822F0020269
:101690008A60016882698B6843EA42028A6090F836
:1016A00020100029016811D01E4A4B6843F40063E2
:1016B0004B6001684B6823F460434B600168446AE7
:1016C0004B6802EB443213434B6003E04A6822F458
:1016D00000624A600168144BCA6A22F47002CA624E
:1016E0000168848BCA6A03EB04531A43CA62016817
:1016F0008A6822F400728A60016890F830208B6852
:1017000043EA42228A6001688A6822F480628A6021
:10171000016840698A6842EA8020886010BD000044
:101720000020014000E0FFFF0000F0FF70470000D4
:101730000146014801F0FEBD1C240120044810B5FB
:1017400001F00AFE042801D0012010BD002010BDC8
:101750001C24012010B500F015F8012801D002204A
:1017600010BD074801F0E2FE040006D104484FF422
:10177000006101F0A5FC00B10124204610BD00006D
:101780001C24012008B501208DF800009DF8000000
:1017900008BD000013460A4610B500240146034860
:1017A00001F0C6FF00B10124204610BD1C24012019
:1017B000034801214FF0FF32406805F099BD000059
:1017C0003C00002013460A4610B500240146034899
:1017D00002F030F800B10124204610BD1C24012085
:1017E000034802214FF0FF32406805F081BD000040
:1017F0003C000020FEE70000014800F0BDBB0000F7
:1018000068270120014800F0B7BB00002026012016
:10181000014800F0B1BB0000A0240120014800F005
:10182000ABBB000000250120014800F0A5BB000073
:101830008026012001681823CAB2103AB2FBF3F2E5
:10184000054B6FF30901032A9B5CC36500D9091D91
:1018500081650846704700004C97000810B5836901
:101860004FF0C074826A0146002053B1B3F5005FA7
:1018700015D072B1012A0CD0022A0AD0032A09D14C
:1018800004E01AB1012A06D0022A03D1C96AC901AB
:1018900000D5012010BDC96AA142FAD010BD002AAE
:1018A000F7D0012AF2D0022AF3D0032AF3D010BDD8
:1018B00030B50468256825F48025256004686360D8
:1018C0008368402B036803D099600068C26030BD14
:1018D0009A600068C16030BD70477047002200F018
:1018E00001B800000E4B70B505465C7A0120002C53
:1018F00014D15E7A03F108009C555E7A03EB8606EC
:1019000075605D7A2A54587A421C5A723A232F2203
:10191000303008704B7020468A70CC7070BD00006B
:10192000E829012070470000F8B50025009590F8DF
:101930003C20012A18D0012280F83C200A680723A5
:101940004E4C0668092A1AD90A3A02EB4207F26895
:10195000BB409A43F2600E680268A64206D10B7A39
:10196000D66846EA036308E00220F8BD0A3E8B68A9
:10197000D76806EB4606B3403B43D3600EE002EB6C
:1019800042073269BB409A43326103680E788A6825
:101990001F6906EB4606B2403A431A614A681F23A4
:1019A000072A13D20668521E02EB8207726BBB40F5
:1019B0009A43726303680E790A88761E5F6B92B24F
:1019C00006EB8606B2403A435A6327E006680D2AC2
:1019D00012D2D21F02EB8207326BBB409A433263B2
:1019E00002680E790B88F61F176B9BB206EB860612
:1019F000B3403B43136311E00D3A02EB8207F26AF6
:101A0000BB409A43F26202680E790B880D3ED76A9A
:101A10009BB206EB8606B3403B43D362184A036889
:101A2000934208D10B68122B05D1D2F8043343F44A
:101A30008003C2F80433036893421AD10B68A342AF
:101A400001D0112B15D1D2F8043343F40003C2F8AE
:101A500004330968A1420CD10A490B4A0968B1FB59
:101A6000F2F101EB8101490000E0491E00910029DB
:101A7000FBD180F83C500020F8BD0000120000109F
:101A8000002001405800002040420F000B48402138
:101A900010B500F0EFFC0A4C4FF0FF31E06A05F0A2
:101AA0001AFB08494FF48042A061FEF73CFCA16993
:101AB000E06A05F091FB606110BD00000018024073
:101AC00004000020C888002010B5094C4FF0FF31F9
:101AD000E06A05F000FB07494FF48042A061FEF781
:101AE00022FCA169E06A05F077FB606110BD00008F
:101AF00004000020C8480020704770B50446006804
:101B000001684268C1F34001C2F3401251B34AB3C5
:101B1000216CC90603D4216C41F4007121648168F1
:101B200011F0405F17D1A169A9B9C16A11F4700F12
:101B300002D0816849050ED4416821F0200141603E
:101B4000206C20F480702064206CC00403D4206CCE
:101B500040F0010020642046FFF798FF21686FF0F5
:101B600012000860206801684268C1F38001C2F376
:101B7000C01289B382B3216CC90603D4216C41F42D
:101B800000512164816811F4401F1ED1816B11F452
:101B9000401F02D08168490517D44168490514D413
:101BA000816811F0405F10D1A16971B9416821F0DD
:101BB00080014160206C20F480502064206CC005BE
:101BC00003D4206C40F0010020642046FFF7AAFEF9
:101BD00021686FF00C00086020680168436811F00C
:101BE000010FC3F380110ED069B10068C0070AD09D
:101BF000206C40F480302064204600F046F82168D4
:101C00006FF001000860206801684268C1F340116C
:101C10000029C2F380620DD0002A0BD0616C6FF0F6
:101C2000200541F00201616405602046FFF764FF72
:101C30002068056070BD70B504004FF0000503D04A
:101C4000206C002610B107E0012070BD204600F096
:101C50001DF8666484F83C60206CC00610D4206CCB
:101C600020F4885040F0020020642046FFF7C2FCB8
:101C70006664206C20F0020040F00100206400E067
:101C8000012584F83C60284670BD70472DE9F0417D
:101C900086B0804614216846FEF75EFB2449D8F8DA
:101CA0000000884241D12348016841F4806101600D
:101CB000006800F4806005901E481438016841F007
:101CC0000101016000680025032100F0010005907A
:101CD00008208DE823001848694600F0DFFA18480C
:101CE000164C810502152060C314C4E901154E137A
:101CF0008715C4E903524FF4403004F11401C4E9DC
:101D00000805204681E8C80000F006FA08B1FFF790
:101D1000E4FD0022C8F8384012201146C4F838808B
:101D200000F042FC122000F031FC06B0BDE8F0816A
:101D30000022014044380240000002406827012090
:101D400010640240F8B50D4604460021009190F859
:101D50003C00012807D0012084F83C0020688368FB
:101D6000DB0702D011E00220F8BD8668364B46F052
:101D70000106866035480068B0FBF3F000EB4000D8
:101D800000E0401E00900028FBD120688368DB073C
:101D900058D0236C40F20166B34343F4807323644C
:101DA0004068400505D5206C20F4005040F4805078
:101DB0002064206CC00404D5606C20F006006064D0
:101DC00000E061646FF0220084F83C10A36B2049AE
:101DD000D963A36B1F491964A36B1F49D964216898
:101DE00008602068416841F0806141602068816836
:101DF00041F48071816021681346A06B2A464C3102
:101E000000F0FCF91549D1F80403C006206811D090
:101E1000884207D1826812F0405F03D1826842F0A5
:101E200080428260D1F80403C0060BD40C492068BC
:101E3000884207D1816811F0405F03D1816841F089
:101E4000804181600020F8BD40420F005800002012
:101E500059150008DD150008C715000800200140CD
:101E60000022014010B590F83C10044600200129E2
:101E70000CD0012184F83C1021688A6822F001020C
:101E80008A6021688A68D20702D013E0022010BD60
:101E9000886820F480708860A06B00F00FF82168DB
:101EA0004A6822F080624A60216C21F4885141F036
:101EB00001012164002184F83C1010BD2DE9F0419E
:101EC000876D044600F0E2FA064694F835000025D6
:101ED000022806D080206065012084F83450BDE8D7
:101EE000F0812068016821F01601016020684169D5
:101EF00021F080014161206C08B9A06C20B12068FC
:101F0000016821F0080101602068016821F00101E9
:101F100001600CE000F0BAFA801B052807D92021E7
:101F20006165032084F8345084F83500D7E72068D1
:101F30000068C007EED194F85C203F20012190405A
:101F4000B86084F8345084F835100020C7E790F862
:101F50003510022903D080214165012070470521F9
:101F600080F835100068016821F00101016000204F
:101F70007047406D704700002DE9F84304464FF06C
:101F80000009644B0820CDF800904FF41652A56D5F
:101F900094F85C101B682E68B3FBF2F700FA01F1AD
:101FA00031420FD021680A6852070BD50A6822F027
:101FB00004020A6094F85C108840A860606D40F0EC
:101FC0000100606594F85C104FF0010808FA01F018
:101FD000304208D021684969090604D5A860606DBF
:101FE00040F00200606594F85C10042088403042A4
:101FF00008D021680968890704D5A860606D40F0A1
:102000000400606594F85C1010208840304218D0BD
:1020100021680968090714D5A86020680168490388
:1020200004D50068000308D5A16C07E00168C90564
:1020300003D4016821F008010160216C09B1204638
:10204000884794F85C1020208840304231D02168C5
:102050000968C9062DD5A86094F8350005282068C0
:10206000016806D0490347D5006800031DD4616CA0
:102070001CE021F0160101602068416921F0800117
:102080004161206C08B9A06C20B12068016821F082
:102090000801016094F85C303F229A40AA6084F8FD
:1020A000349084F83580216D1FE0E16B09B1204642
:1020B0008847606D00282BD0606DC00714D00520C4
:1020C00084F835002068016821F001010160009862
:1020D000401C0090B84203D820680068C007F6D1C1
:1020E00084F8349084F83580E16C002910D001B078
:1020F0002046BDE8F04308470168C905D5D4036808
:1021000023F01003036084F8349084F83580CCE722
:10211000BDE8F883580000202DE9F047044600F0A0
:10212000B5F9054664B14FF0000984F834900221F6
:1021300084F835102068016821F0010101600EE08B
:102140000120BDE8F08700BF00F0A0F9401B052882
:1021500005D920216165032084F83500F1E7206866
:102160000068C007F0D1D4E90020D4E90251D4E9D5
:10217000043C284304F1180519430843116895E805
:10218000E00140EA0C001C4B2843194040EA0600DD
:1021900040EA0700B8F1040F40EA010003D1D4E996
:1021A0000B1319430843106020680126656A4069D3
:1021B000042D20F0070045EA00050CD1D4E90A01FE
:1021C000054341B12046FFF749FB20B1402060653F
:1021D00084F83560B4E7206845612046FFF72AFBA4
:1021E00094F85C303F229A408260C4F8549084F89E
:1021F00035600020A5E700003F8010F02DE9F04198
:10220000044690F8340000250128A66D0ED094F8FD
:1022100035C00127002084F83470BCF1010F07D0CD
:10222000022584F834002846BDE8F0810220FBE74F
:10223000022784F8357060652046FFF739FB94F873
:102240005C103F208840B0602068016841F01601B2
:1022500001602068416941F080014161206C20B13A
:102260002068016841F0080101602068016841F0C0
:1022700001010160D7E7000070B5044600F006F9DF
:102280000546601C02D004480078044400F0FEF8C3
:10229000401BA042FAD370BD4C0000202DE9F84F3E
:1022A000DFF89CE100224FF001084FF0030B4FF0E4
:1022B0000F0A00BF0B6808FA02F42340A34271D151
:1022C0004D68022D01D0122D0FD1D5080E69570788
:1022D00000EB8505A9462D6AFF0E0AFA07FCBE40F1
:1022E00025EA0C052E43C9F820600F7955000668D1
:1022F0000BFA05FC07F0030726EA0C06AF4037434C
:1023000007604E68012E05D0022E03D0112E01D099
:10231000122E0ED18668CF6826EA0C06AF403743EE
:10232000876046680F79A643C7F300179740374385
:102330004760C4688E6824EA0C04AE402643C66039
:102340004C68E40075D53F4C256845F48045256010
:10235000246822F00306950704F4804400943A4C64
:102360002D0F2644D6F80848DFF8E0C00AFA05F732
:10237000604524EA070401D100272EE0344FB8421B
:1023800001D1012729E0334FB84201D1022724E0CF
:10239000314FB84201D103271FE0304FB84202D17C
:1023A00004271AE045E02E4FB84201D1052714E07A
:1023B0002C4FB84201D106270FE02B4FB84201D174
:1023C00007270AE0294FB84201D1082705E0284F26
:1023D000B84201D1092700E00A27AF4027437546DC
:1023E000C6F808784E68DEF80040F60324EA0304D5
:1023F00000D51C43124E2C60361D4D683468AD0369
:1024000024EA030400D51C430D4F346008374D689F
:102410003C68ED0224EA030400D51C43084D3C60EF
:102420000C354E682C68B60224EA030400D51C4320
:102430002C60521C102AFFF43DAFBDE8F88F00005D
:10244000003C01404438024000300140000002409E
:102450000004024000080240000C0240001002404C
:102460000014024000180240001C024000200240FC
:1024700000240240426931EA020200D1090481616C
:1024800070470AB1816170470904FBE70148806821
:10249000704700004C000020024881680278114417
:1024A000816070474C000020094810B5016841F474
:1024B00000710160016841F480710160032000F047
:1024C00093F8002000F006F800F03EF8002010BD60
:1024D000003C024010B500220146362088B000F0D2
:1024E00063F8362000F052F81348016841F01001FB
:1024F0000160006805A900F010000690684600F031
:10250000CFFB00F0EDFB0D49400000220C4CB0FB6E
:10251000F1F10C4840F2E7330460C0E90332491E90
:10252000C0E9011201F036FA10B1012008B010BD67
:10253000044801F091FAF9E74038024040420F00A8
:1025400000100040E02601200F4808B5016841F066
:1025500080510160006800F0805000900A48001D22
:10256000016841F48041016000680022052100F407
:1025700080400090101F00F017F800220F21BDE8E6
:102580000840901E00F010B840380240002809DBD7
:10259000410900F01F028900012001F1E021904073
:1025A000C1F80001704700000E4BF0B41B680D46E7
:1025B000C3F30223C3F10706042E00D90426191D14
:1025C000072901D2002300E0DB1E012404FA06F1F2
:1025D0009C40491E2940641E994014402143F0BC90
:1025E00003F0A2B90CED00E0064900F0070210B5B7
:1025F0004FF6FF040868044B204040EA02201843CD
:10260000086010BD0CED00E00000FA051848F8B5B0
:10261000016841F0805101600068164C00F0805064
:102620000090206840F480302060FFF72FFF4FF4C7
:102630007A76054605E000BFFFF728FF401BB04251
:102640000FD86068C003F7D5206840F400302060E0
:10265000FFF71CFF054606E0FFF718FF401BB042DE
:1026600001D90320F8BD60688003F5D50020F8BDCE
:1026700040380240007000402DE9F84F04460078D1
:10268000DFF824944FF000063746C0070ED0D9F883
:10269000001021F40001C9F80010D9F80010626B95
:1026A0001143C9F80010606B00B90126FE4D206887
:1026B000843500030ED5E16B286820F440100843F0
:1026C0002860E06BB0F5801F01D010B102E0012658
:1026D00000E0012720684FF4800BC0020CD5216C6C
:1026E000286820F4400008432860206C584501D138
:1026F000012601E000B901272068C10100D50126AB
:10270000800666D5E8483830016841F080510160A4
:102710000068DFF898A300F080500090DAF800100D
:1027200041F48071CAF80010FFF7B0FE804605E062
:10273000FFF7ACFEA0EB080064287DD8DAF80000B3
:10274000C005F5D5DFF8608308F16808D8F8000007
:1027500010F440702AD0218E01F44071814225D0BE
:10276000D8F80010D8F8002021F4407142F48032EB
:10277000C8F80020D8F8002022F48032C8F80020E1
:10278000C8F80010D8F80000C0070FD0FFF77EFE91
:10279000824607E0FFF77AFEA0EB0A0141F288309B
:1027A0008142CAD8D8F800008007F3D5206BC0F367
:1027B000012103297ED0D9F8001021F4F811C9F8BD
:1027C0000010228ED8F80010C2F30B021143C8F893
:1027D00000102078C00607D5286820F08070286097
:1027E0002868A16B084328602188AF4888304904D5
:1027F00005D5626E016821F44031114301602188E2
:10280000090405D5A26E016821F44021114301603D
:102810002168C90305D5E26E016821F44011114316
:1028200001602168890305D5226F016821F4400108
:1028300011430160217800E018E1490605D5626C7A
:10284000016821F00301114301602178090605D5D3
:10285000A26C016821F00C01114301602188C905B7
:1028600005D5E26C016821F0300111430160218837
:10287000890505D5226D016821F0C0011143016071
:102880002188490505D5626D016821F44071114325
:1028900001602188090505D5A26D016821F4406118
:1028A000114301602188C90407D5E26D016821F454
:1028B000405100E041E0114301602188890405D5C1
:1028C000226E016821F440411143016021684902F0
:1028D00005D5A26F016821F0806111430160216874
:1028E0004FF0006A890209D5E26F016821F00061AA
:1028F00011430160E16F514500D1012721680A07AA
:1029000000D50127490305D5626F016821F04071A8
:10291000114301602168090206D5D4F880200168BE
:1029200021F0805111430160DFF88491012E0ED017
:102930002068B0F1007F0AD08FE05E4AD9F80030FD
:10294000104023F4F8120243C9F8002039E7D9F8FF
:1029500000004E4620F08060C9F80000FFF796FDA9
:10296000804605E0FFF792FDA0EB080064287DD8C3
:1029700030680001F6D421784B487C30C90712D06A
:10298000616B81B9237A62680168D0F800C0920156
:10299000C1F3014142EA0142CCF3036142EA016121
:1029A00041EA0371016021680A0303D5E26BB2F5C5
:1029B000801F04D0C9021AD5216C594517D163680C
:1029C000016894F80CC002689B01C1F3014143EA1D
:1029D0000141C2F3027241EA0C6141EA02710160F5
:1029E0002968626A21F01F01521E11432960216883
:1029F000C90110D5238A62680168D0F800C092012D
:102A0000C1F3036142EA034242EA0162CCF302717C
:102A100042EA01710160216889010CD56168228A4E
:102A2000237B94F808C0890141EA024141EA03612D
:102A300041EA0C7101603168B04641F0806131605B
:102A4000FFF724FD064604E0FFF720FD801B642805
:102A50000CD8D8F800000001F6D56FB3D9F8000003
:102A60004E4620F08050C9F8000000E079E0FFF702
:102A70000DFD074605E000BFFFF708FDC01B6428F9
:102A80006FD83068C0438000F6D507482168803091
:102A90000A0301D5E26B1AB1C90225D5216C19BB15
:102AA00063690168277E08E0083802400070004032
:102AB00000380240FFFCFF0F5AE00268C1F30141F9
:102AC0009B0143EA0143C2F3027143EA076242EA0F
:102AD0000171016029686FF0FF03A26A21F4F851C7
:102AE00003EB0222114329602168890212D5E16FAC
:102AF00051450FD1238C6269016807689201C1F3C7
:102B0000036142EA034242EA0162C7F3027142EA08
:102B1000017101602178090716D561690268D0F852
:102B200000C08B01277FC2F30362CCF3014143EA6B
:102B3000014141EA026141EA077101602868E16AE6
:102B400020F4403008432860306840F08050306006
:102B5000FFF79CFC044607E0FFF798FC001B642885
:102B600002D90320BDE8F88F3068C0438000F3D459
:102B70000020F7E72DE9F04705000F4663D0444EEB
:102B8000306800F00F00B84209D2306820F00F0022
:102B900038433060306800F00F00B84253D12868E5
:102BA0003C4C810712D5400703D5206840F4E05023
:102BB00020602878000703D5206840F4604020603A
:102BC000A968206820F0F000084320602878C0073A
:102BD0002AD0304968680839012810D009680228CD
:102BE00010D0890700292EDA216821F00301014362
:102BF0002160FFF74BFC804641F288390DE00968FF
:102C00008903EFE78901EDE7FFF740FCA0EB08013E
:102C1000494502D90320BDE8F0876868216801F0C2
:102C20000C01B1EB800FEFD1306800F00F00B8421B
:102C30000BD9306820F00F0038433060306800F066
:102C40000F00B84201D00120E5E72878400705D5FC
:102C5000E968206820F4E0500843206028780007E5
:102C600006D52869216821F4604141EAC00020604E
:102C700000F056F82168084AC1F30311515CC840BE
:102C8000064908600020FFF725FC0020C3E700008C
:102C9000003C0240083802405497000858000020C9
:102CA0000D4A0F2330B503604FF4E0540B4B156809
:102CB00005F003054560156805F0F00585601568A9
:102CC00005F4E055C560126804EAD2020261186892
:102CD00000F00F00086030BD08380240003C0240A0
:102CE0000449054809680068044AC1F38221515C1F
:102CF000C840704708380240580000206497000818
:102D00000449054809680068044AC1F34231515C2E
:102D1000C8407047083802405800002064970008F7
:102D2000154910B51548096811F00C0213D041106F
:102D3000042A0FD0082A0ED10F4C241F22682368C2
:102D400002F03F025B0207D52068C0F38810A0FBA9
:102D5000010106E0084610BD2168C1F38811A1FBFE
:102D600000010023FDF7AEFA2168C1F30141491CBF
:102D70004900B0FBF1F010BD083802400024F40017
:102D80002DE9F84F05004FF000076ED02878DFF8E6
:102D90001C93A9F1040AC007AAF104044CD0D9F885
:102DA00000104846C1F38101012908D00068C0F332
:102DB000810002280AD1DAF80000400206D5206816
:102DC000800339D568680028DFD035E06868B0F541
:102DD000803F0BD010B1B0F5A02F11D0206820F4A7
:102DE00080302060206820F4802002E0206840F4D9
:102DF00080302060686890B1FFF748FB06460AE023
:102E0000206840F480202060F0E700BFFFF73EFB21
:102E1000801B642872D820688003F7D50CE0FFF788
:102E200035FB064605E000BFFFF730FB801B64283A
:102E3000F0D820688003F7D42878800742D5D9F8E5
:102E40000010484611F00C0F08D00068C0F3810054
:102E500002280BD1DAF80000400207D4206880076E
:102E600018D5E868012800D114E01CE1E8680028C2
:102E7000206817D040F001002060FFF707FB0646EE
:102E800005E000BFFFF702FB801B0228C2D82068C4
:102E90008007F7D52869216821F0F80141EAC000D0
:102EA00020600FE020F001002060FFF7EFFA0646F7
:102EB00005E000BFFFF7EAFA801B02281ED8206851
:102EC0008007F7D42878000729D5784869696C30DD
:102ED00000298046016812D041F001010160FFF72E
:102EE000D5FA064605E000BFFFF7D0FA801B02289E
:102EF00004D8D8F800008007F6D510E089E021F06A
:102F000001010160FFF7C2FA064604E0FFF7BEFACE
:102F1000801B02287DD8D8F800008007F6D42878D6
:102F200040076BD5DFF8848108F13808D8F8000035
:102F3000C0000BD4D8F8001041F08051C8F8001040
:102F4000D8F80000012700F0805000905848016830
:102F5000C90512D40168834641F480710160FFF70E
:102F600095FA064605E000BFFFF790FA801B64283B
:102F70004FD8DBF80000C005F6D54C4EA86868367F
:102F800001280AD008B1052811D0306820F00100CE
:102F90003060306820F0040002E0306840F001004A
:102FA0003060A868A0B1FFF771FA83460CE0306882
:102FB00040F004003060F0E7FFF768FAA0EB0B0187
:102FC00041F28830814266D830688007F4D50EE03F
:102FD000FFF75CFA834607E0FFF758FAA0EB0B0116
:102FE00041F28830814256D830688007F4D42FB13E
:102FF000D8F8001021F08051C8F80010A869C8B3B3
:10300000D9F80010C1F3810102294CD002282068B0
:1030100000E040E020F08070206003D0FFF736FA37
:1030200005463BE0FFF732FA064604E0FFF72EFACA
:10303000801B02282FD820688001F7D4D5E90962C7
:10304000D5E907011B4B570895F82C20084303EBE3
:10305000074343EA8611084340EA026040F000500B
:10306000CAF80000206840F080702060FFF70EFA78
:10307000054606E015E000BFFFF708FA401B0228EE
:1030800009D820688001F7D50BE000BFFFF7FEF9F3
:10309000401B022802D90320BDE8F88F2068800178
:1030A000F4D40020F8E70120F6E7000008380240D9
:1030B000007000400000FFFF10B5FEF737FB10BDA9
:1030C000FEB504460D46416C032084F83400032904
:1030D00020D0B5F5805F1DD0B5F5006F05D045B1A6
:1030E000A06B40F00060A06309E0204601F011FFF2
:1030F00002E0204601F0E6FEA16B0143A163A06B54
:10310000012658B1216840F2FF50886384F834608A
:103110000120FEBDA06B40F08050E4E7211DD4E902
:1031200005070EC9CDE900500297206801F0ACFCFC
:1031300084F834600020FEBD7047F0B5426E120E78
:1031400093090B70C2F3830402F003024C708A707F
:10315000426E120CCA70B0F86420120A0A7190F81C
:1031600064204A714FF6FF73826E120E03EA021258
:10317000CA80CB88826EC2F3074214092343CB80F6
:1031800002F00F020A72B0F868200025C2F307228D
:10319000D3094B72C2F38014C2F34016C2F3001776
:1031A0008C72CE720F734D730123446C4FF4007612
:1031B0006CB1012C46D0026840F2FF519163816BE3
:1031C00041F08051816380F834300120F0BD9207D6
:1031D000120D0A610C6990F8682044EA82020A61C3
:1031E0000C69C26E120E9709C2F3C20C3C430C610B
:1031F00002F0070281F814C04A75C26EC2F307429A
:10320000940757098F75640FC2F38202CA750C7652
:103210000A7EB0F86C40C4F3072442EAD4120A765E
:103220000A69521C42650F7EBF1CBA4042650F7A84
:1032300003FA07F787654FEA572C02FB0CF2C0E947
:1032400017261CE090F868209206920A0A610C6921
:10325000C26E120E44EA02220A610C69C26EC2F307
:10326000074214430C610A69B0F86C40521C4FEAE3
:1032700082224265C4F30724C0E916620666C4F3DD
:1032800080124FEA84644A764FEA54648C7690F850
:103290006C208C7E4FEAD21602F07F0244EA0604CC
:1032A0008C76CA7650F8702F4FEA12624FEAD21429
:1032B0000C77C2F34116C2F382074FEA82724E774F
:1032C0008F774FEA1272CA77CC7F0268C2F3074247
:1032D00044EA9214CC77C2F3401602F0010281F85E
:1032E000206081F8215081F822200288C2F3072251
:1032F0004FEAD21481F82340C2F38015C2F340167E
:10330000C2F30017C2F3810C02F0030281F82450CB
:1033100081F8256081F8267081F827C081F828207F
:1033200000784FEA500081F8290081F82A304FF0E8
:103330000000F0BD426C0A60826C4A60C26C8A6018
:10334000026DCA60426D0A61826D4A61C26D8A6116
:10335000006EC8610020704770B5B0F850100025AD
:1033600004460068090401F0DBF918B1A16B0143C0
:10337000A16304E02068002101F080FB0546C5F34D
:10338000432070BD70B504460068012540F2FF5629
:10339000416BC90548D5290281632068C16B21F4BE
:1033A0009D71C163206B0007206B20D5800702D47C
:1033B000206B800609D5206801F0E4F928B1A16BE3
:1033C0000143A1632046FFF7B7FE2068866384F8B7
:1033D0003450206BC00702D1206B800703D52046F4
:1033E00000F020FA70BD204600F020FA70BD000603
:1033F000FCD5206B800609D5206801F0C3F928B1FF
:10340000A16B0143A1632046FFF796FE206BC00726
:10341000ECD1206B8007E9D42068C16A21F0080153
:10342000C16284F83450DEE7416B490410D54FF493
:1034300080418163266A0025206806EB850101F042
:103440004CFB6D1C082DF7D3206A2030206270BD24
:10345000416B090410D54FF400418163A66A002531
:10346000206801F026FB46F825006D1C082DF7D3D7
:10347000A06A2030A06270BD416B11F03A0FFAD003
:10348000416B890703D5A16B41F00201A163416B38
:10349000090703D5A16B41F00801A163416B8906BF
:1034A00003D5A16B41F02001A163416BC90603D58F
:1034B000A16B41F01001A16386632068C16B21F408
:1034C0009D71C163206B000623D5206C58B115494E
:1034D0000165206CFEF73BFD0028CCD0206CBDE8D8
:1034E000704001F09ABBE06B58B10F490165E06B89
:1034F000FEF72DFD0028BED0E06BBDE8704001F066
:1035000061BB0020A06384F834502046FFF7D4FD4F
:1035100070BD206B0007FBD584F834502046FFF7C0
:103520000BFE70BD1B4C0008C54B000870B50400B5
:1035300004D094F83400002510B105E0012070BDDE
:103540002046257700F03CF8032084F8340020461C
:1035500000F007F80120A563256384F834000020FB
:1035600070BD3EB504467620002100910B460A4608
:10357000CDE90110206801F087FA2068416821F444
:1035800080714160206801F090FA2068416841F440
:10359000807141600220FEF76FFE204601F03FFC83
:1035A0004FF0010520B9204601F0C6FB002805D0E8
:1035B00084F83450A16B0143A16301203EBD00009B
:1035C0002DE9F04F87B0814614216846FCF7C4FE10
:1035D0005149D9F8000088427ED1504800684F49CF
:1035E00040F400600860086800F4006005904B48F3
:1035F00014380068494940F004001439086008682C
:1036000000F0040005900968444841F008011438AE
:103610000160006802210C2400F0080005904FF4BE
:10362000F850009000200325CDE901103C48694680
:10363000CDE90354FEF732FE01AA04940426009655
:103640000220002182E8230036486946FEF726FE64
:10365000354C4FF0006B35484FF400184FF4806A3A
:10366000B102C4E9000BC4F830800020666204F1A6
:10367000140EA0608A00C4E9030A202320464F01EB
:103680004FF4000C8EE88E00C4E90A5CFEF744FD9E
:1036900008B1FEF722F9244D4FF04008C9F83C402C
:1036A00020206035DFF884C0C4F838904FF480568D
:1036B0000CF1480CC5F800C00022C5E901B8EA6069
:1036C000B7000403C5F810A003214FF0040C020456
:1036D0002A634FF4000800E01AE01C3585E8111059
:1036E000C5E9031845E90267A5F11C001C3DFEF77A
:1036F00013FD08B1FEF7F1F8C9F84050002205218A
:10370000C5F838903120FEF74FFF3120FEF73EFF1D
:1037100007B0BDE8F08F0000002C014044380240A3
:1037200000080240000C0240A0240120586402401E
:103730002DE9F04387B01F461546044639B194F889
:103740003400012807D0022007B0BDE8F083A06B49
:1037500040F0006008E0E26D0020EB19A0639342A6
:1037600004D9A06B40F00070A06355E003228146AD
:1037700084F834202268D0622268D36B43F49573B6
:10378000D363E36B4FEA4728244ADA63E36B244AA6
:10379000DA644FEA9803E26B10650A462068E66B2C
:1037A00000F180013046FEF729FD2068C16A41F032
:1037B0000801C162606C012800D06D0269460126D3
:1037C0000596B01ECDE9000802A89022022380E8E9
:1037D0000C02206801F022F82068710200F086FED9
:1037E00040F2FF5880B9012F06D98220206320685B
:1037F000294600F007FF05E0812020632068294664
:1038000000F019FF00289FD02268C2F83880A16B11
:103810000143A16384F83460012095E7874B0008D9
:10382000294B000810B5FDF7C3FF10BD10B5FDF71B
:10383000D7FF10BD2DE9F04F5FEA010B1E4687B0A0
:103840001546044607D094F83400012807D002201A
:1038500007B0BDE8F08FA06B40F0006008E0E16DBC
:103860000020AA19A0638A4204D9A06B40F000701E
:10387000A0633AE00321804684F834102168C862CE
:103880002168CA6B42F01A02CA63226C2549D163CF
:10389000226C2549D164216C0865606C012800D038
:1038A0006D0220684FF4007100F020FE4FF0010718
:1038B00040F2FF5988B9012E4FF0900A06D9A02096
:1038C00020632068294600F077FF05E0C4F830A0A7
:1038D0002946206800F089FF48B12268C2F8389074
:1038E000A16B0143A16384F834700120B0E7206824
:1038F000C16A41F00801C16222687502206C594614
:10390000AB088032FEF77AFCCDE904874FF0FF3236
:103910006946CDE902A8CDE90025206800F07EFFC8
:10392000002095E70D4C0008294B000870477047B0
:103930007047000070B590F83C20012A24D0134C49
:10394000012580F83C50022280F83D20026853682F
:10395000A242966802D00E4CA24203D14C6823F4D6
:10396000700323430C6823F0700389681C43546080
:10397000002326F0800602683143916080F83D50B4
:1039800080F83C30184670BD022070BD0000014038
:103990000004014010B5040003D094F83D0010B1BC
:1039A00007E0012010BD002084F83C00204600F014
:1039B0000DF8022084F83D002068211D01F07CFCF8
:1039C000012084F83D00002010BD000008B500680B
:1039D0001349884222D11348016841F00101016076
:1039E00000680022052100F0010000901820FEF779
:1039F000DBFD1820FEF7CAFD002205211920FEF785
:103A0000D3FD1920FEF7C2FD002205211A20FEF782
:103A1000CBFDBDE808401A20FEF7B8BD08BD000088
:103A200000000140443802400A4B022180F83D105A
:103A300001688A681A40062A06D0B2F5803F03D092
:103A40000A6842F001020A60012180F83D1000205E
:103A500070470000070001000168094ACB6843F085
:103A60000103CB60016888681040062806D0B0F5D5
:103A7000803F03D0086840F00100086000207047D4
:103A80000700010070B5044690F83C00012817D0EB
:103A9000324B012584F83C50022084F83D00226816
:103AA0009068184020F47F4090600868502830D01B
:103AB0000DDC20284DD005DC98B310283BD148E020
:103AC000022070BD302844D0402834D139E060282D
:103AD00028D0702806D0B0F5805F2CD0B0F5005FFC
:103AE00029D10AE04A682068D1E9021301F04AFCB2
:103AF0002068816841F0770109E04A682068D1E9CF
:103B0000021301F03FFC2068816841F4804181602C
:103B100011E0CA684968206801F045FC206850211E
:103B200007E016E0CA684968206801F04DFC20688B
:103B3000602101F030FC002084F83D5084F83C0006
:103B400070BDCA684968206801F02DFC20684021DA
:103B5000EFE7226801461046EBE7000088FFFEFF12
:103B6000704770B50446006800250169C94389079C
:103B700015D4C168C943890711D4EA1E0261012125
:103B80002177206880698007204602D0FFF7E8FF90
:103B900004E000F0A7F8204600F0A5F8257720689B
:103BA0000169C943490717D4C168C943490713D4F8
:103BB00002216FF00402026121772068806910F40D
:103BC000407F204602D0FFF7CBFF04E000F08AF8E8
:103BD000204600F088F8257720680169C943090765
:103BE00016D4C168C943090712D404216FF0080232
:103BF000026121772068C0698007204602D0FFF764
:103C0000AFFF04E000F06EF8204600F06CF8257776
:103C100020680169C943C90617D4C168C943C906E8
:103C200013D408216FF01002026121772068C06967
:103C300010F4407F204602D0FFF792FF04E000F02E
:103C400051F8204600F04FF8257720680169C943F4
:103C5000C90708D1C168C943C90704D1891E0161D8
:103C6000204600F041F820680169C943090609D4DB
:103C7000C168C943090605D46FF08001016120467F
:103C8000FFF755FE20680169C943C90509D4C16819
:103C9000C943090605D46FF4807101612046FFF71E
:103CA00045FE20680169C943490609D4C168C94372
:103CB000490605D46FF040010161204600F01EF86E
:103CC00020680169C94389060BD4C168C9438906C4
:103CD00007D46FF0200101612046BDE87040FFF776
:103CE00027BE70BD7047704700680349884201D104
:103CF000FEF7D2BB704700000010004070477047CD
:103D00002DE9F041026804460025D06911689368E6
:103D100010F00F0F5BD003F0010601F490773743EA
:103D200069D0C70707D0CF0505D501271762E26F15
:103D300042F00102E267820708D5DA0706D0276859
:103D400002223A62E26F42F00402E267420708D5BB
:103D5000DA0706D0236804221A62E26F42F00202F8
:103D6000E26702070AD501F02002324306D0236839
:103D700008221A62E26F42F00802E267E26F002A4C
:103D800032D0800605D5880603D5216E09B12046BC
:103D900088472168E06F8968490601D4000725D566
:103DA000204601F017FC20688168490619D5816812
:103DB00021F040018160E06E98B11A490165E06E22
:103DC000FEF7C5F800280FD0E06E016D06E083060F
:103DD00011D58B060FD5216E12E02046BDE8F041CB
:103DE00008472046FFF78BFFBDE8F0812046FFF72C
:103DF00086FFE567F8E7030605D50B0603D5616E78
:103E00000029EAD1F0E74006EED54806ECD5136864
:103E10002021204623F0400313606167656600F0AF
:103E20005DF9E1E7F154000810B5040002D0606FBD
:103E300010B107E0012010BD002084F8700020467A
:103E400000F026F8242060672068016821F0010155
:103E50000160204601F0D6FB0128ECD0606A10B169
:103E6000204601F0C3FA2068416821F49041416086
:103E70002068816821F02A0181602068016841F092
:103E8000010101602046BDE8104001F013BB0000B5
:103E90002DE9F04786B0074614216846FCF75CFA26
:103EA0002C493868884252D12B48016841F02001E2
:103EB0000160006800F02000059027481438016870
:103EC00041F00401016000680026022100F00400B6
:103ED0000590C02008238DE8430003221F48CDE948
:103EE00003236946FEF7DAF91D4D4FF480691D4B37
:103EF0004FF020684FF4003A28462B609B15C5E927
:103F00000186C5E903696E61C5E90663C5E908A6CE
:103F1000FEF702F908B1FDF7E0FC114C4023FD6605
:103F20006034AF6304F108000E4A903280E8480222
:103F300066612046A661C4E9076A6662C4E9002892
:103F4000FEF7EAF808B1FDF7C8FCBC66A76306B047
:103F5000BDE8F087001401404438024000080240E8
:103F6000202601202864024070B50446806F202876
:103F70003FD149B342B394F87000012839D0E06EC4
:103F8000012684F87060002561652223A4F858207A
:103F9000E567A367D0B118491346C163E16E1748BE
:103FA0000864E16E1648C864E06E0565666D2168B8
:103FB000E06E32462431FEF721F938B11021E16775
:103FC000202084F870506067012070BD84F8705024
:103FD0002068016841F4807101602068816841F0C7
:103FE000010181602068816841F04001816000200A
:103FF00070BD022070BD00004B55000885550008BB
:104000000555000870B500680B49884213D10B4C68
:104010000B4D2078312805D103F008FF686A012193
:1040200003F098FA2078322805D1A86A0221BDE869
:10403000704003F08FBA70BD0014014000000020F2
:10404000040000207047000070B50446406F20282F
:104050003BD161B35AB394F87000012835D0A4F86D
:104060005020A4F852200025A06E0123E1642121F4
:1040700084F87030E5676167D8B115491346C163AC
:10408000A16E14480864A16E1348C864A06E05654B
:104090002068A66E00F12802E16C3046FEF7AEF80B
:1040A00038B11021E167202084F87050606701204A
:1040B00070BD21684020086284F8705020688168D3
:1040C00041F080018160002070BD022070BD0000C1
:1040D0008F550008CB5500080555000870477047FC
:1040E000FEE7000070B50A4E012556600B46906150
:1040F0001021D58240005184022411611146D06103
:104100001846148400F056F9012800D0002070BD34
:1041100000093D007FB5174800240125144A00948A
:104120004FF0405101942B040294039402604FF02D
:104130001062C0E901340461846180F82040C561E7
:10414000C460C0E90A2180F830504561FDF773FD75
:1041500008B1FDF7C2FB03206946CDE9000505481B
:104160000294FDF7E1FB002801D0FDF7B6FB7FBD0F
:104170000022014020270120194808B5016841F4B8
:104180008001016000680022052100F48000009099
:104190003820FEF709FA3820FEF7F8F90022052149
:1041A0003920FEF701FA3920FEF7F0F90022052147
:1041B0003B20FEF7F9F93B20FEF7E8F90022052144
:1041C0004520FEF7F1F94520FEF7E0F90022052130
:1041D0004620FEF7E9F9BDE808404620FEF7D6B9CB
:1041E000303802400449054810B5FDF777FB024915
:1041F000491E087010BD00004500002028970008E7
:1042000010B592B011491C226846FCF78CF80021C9
:10421000684603F0F8F90E4C1C220C491C31606210
:1042200007A8FCF780F8002107A803F0ECF907497C
:10423000A062D1E90E01CDE90E0111A81090002174
:104240000EA802F04EFFE06212B010BDE496000826
:104250000400002030B587B014216846FCF77CF8D4
:104260001E48016841F080010160016801F0800191
:104270000591016841F001010160016801F001014F
:104280000591016841F002010160016801F002013D
:104290000591016841F004010160016801F0040129
:1042A0000591016841F00801016000684FF48064E5
:1042B0000B4D002200F00800214605902846FEF72D
:1042C000E0F8002100940120CDE901012846039186
:1042D0006946FDF7E3FF07B030BD0000303802400B
:1042E0000004024006480021044AC0E90021816020
:1042F000C16001614161816170470000002C014093
:104300001C24012010B588B01948002440F21B225B
:10431000164900940194029403940494059406941D
:10432000C0E90014C0E90242046144618461FFF7FE
:1043300031FB08B1FDF7D1FA4FF4805000900C48E2
:104340006946FFF79FFB08B1FDF7C7FA202004AAD2
:10435000010482E81300064804A9FFF7EBFA0028DD
:1043600001D0FDF7BAFA08B010BD0000000001400E
:10437000602501200D48002110B50B4C0C224FF494
:1043800061330460C0E90131C160C0E90412816198
:10439000C16101624162FFF747FD002803D0BDE81B
:1043A0001040FDF79ABA10BD00140140A02501206D
:1043B000FEE77047F0B55226067049244470462542
:1043C0008570C570002202715724427141258271A7
:1043D0005626C271452704724FF0660C45724FF0A5
:1043E0006D0E86727423C772202480F80CC01025CD
:1043F00080F80DE0012683736427C473612405747B
:1044000042748274C2740675042642758D7D85756A
:10441000C2750D7E05760D8B2D0A45768D692D0CA6
:1044200085768D692D0EC5760D7F05778D8B2D0ACE
:104430004577CD692D0C8577CD692D0EC57780F830
:10444000206080F8212091F8221080F8221080F856
:10445000232080F8247080F8254080F8263080F8EA
:10446000274080F8282080F8292080F82A2080F82A
:104470002B200020F0BD00000148FEF783BF0000A4
:104480001C24012030B585B00446372040220DF1B0
:10449000080CCDE9001000236946150120468CE880
:1044A0002C0000F009FB372141F28832204600F051
:1044B000C9F905B030BD000030B50B4A85B00446DF
:1044C0002920114340220DF1080CCDE900100023F2
:1044D0006946150120468CE82C0000F0EDFA2046D4
:1044E00000F066FA05B030BD0000108030B585B030
:1044F000044610200DF1080C8501CDE90010402282
:104500006946002320468CE82C0000F0D5FA1021E3
:1045100041F28832204600F095F905B030BD30B543
:1045200085B00446062040220DF1080CCDE90010AC
:1045300000236946150120468CE82C0000F0BCFAE7
:10454000062141F28832204600F07CF905B030BDEA
:1045500030B585B00546002469464FF4806000946C
:1045600001940294CDE90340284600F0A5FA0B4AD5
:104570004FF4FA5041F288311268B2FBF0F0484330
:10458000401E03D24FF0004005B030BD696B0906F4
:10459000F6D540F2FF512046A963F5E75800002008
:1045A00070B50821044685B04FF4D5704026CA0185
:1045B0008DE8430000256946CDE90352204600F00E
:1045C0007BFA0F4A4FF4FA5041F288311268B2FB7D
:1045D000F0F04843401E02D24FF000450CE0616B02
:1045E00011F0450FF6D0606B400701D5042502E0BD
:1045F000606B400600D5A66305B0284670BD00007C
:104600005800002030B585B00446122040220DF13C
:10461000080CCDE9001000236946150120468CE8FE
:104620002C0000F049FA122141F28832204600F0B5
:1046300009F905B030BD30B585B0044611204022DF
:104640000DF1080CCDE90010002369461501204644
:104650008CE82C0000F030FA112141F2883220461B
:1046600000F0F0F805B030BD30B585B0044640210B
:104670000DF1040C0720009200230D018CE82B00A3
:104680006946204600F018FA072141F28832204698
:1046900000F0D8F805B030BD10B586B00446002152
:1046A0000220C02243020493CDE90010CDE902218B
:1046B0006946204600F000FA204600F051F906B0A5
:1046C00010BD30B585B0044609200DF1080CC0229C
:1046D000CDE90010002369464FF4806520468CE840
:1046E0002C0000F0E9F9204600F03AF905B030BDA1
:1046F00010B586B00446002133204022CDE90221C6
:10470000CDE90010130169462046049300F0D4F966
:10471000332141F28832204600F094F806B010BDF3
:1047200030B585B004460D2040220DF1080CCDE9CE
:10473000001000236946150120468CE82C0000F08B
:10474000BBF90D2141F28832204600F07BF805B01C
:1047500030BD30B585B00C4600210546032040220F
:10476000CDE90221CDE900101301694628460493E2
:1047700000F0A2F903212246284600F039F905B0DD
:1047800030BD000010B586B0044600210C20402248
:10479000CDE90221CDE900101301694620460493BA
:1047A00000F08AF9034A0C21204600F04BF806B0CD
:1047B00010BD000000E1F50530B585B004461920B4
:1047C00040220DF1080CCDE90010002369461501C7
:1047D00020468CE82C0000F06FF9192141F2883254
:1047E000204600F02FF805B030BD30B585B0044646
:1047F000182040220DF1080CCDE900100023694675
:10480000150120468CE82C0000F056F9182141F2E1
:104810008832204600F016F805B030BD70B50A6841
:1048200042624A688262C46AD1E90225D1E904364B
:1048300024F0F7012A4333431A431143C162002095
:1048400070BD000010B5444C4FF4FA532468B4FB1B
:10485000F3F353435B1E02D24FF0004010BD426B96
:1048600012F0450FF6D0426B520703D50421816345
:10487000084610BD426BD20702D00121816303E0DC
:104880000269D2B28A4201D0012010BD40F2FF512C
:104890008163002100F0F2F83049084201D1002084
:1048A00010BD002802DA4FF0007010BD410001D5A4
:1048B000402010BD810001D5802010BDC10002D56F
:1048C0004FF4807010BD010102D54FF4007010BD8F
:1048D000410102D54FF4806010BDC10102D54FF4F3
:1048E000006010BD010202D54FF4805010BD41029E
:1048F00002D54FF4005010BD810202D54FF4804024
:1049000010BDC10202D54FF4004010BD410302D5D5
:104910004FF4003010BD810302D54FF4802010BD4C
:10492000C10302D54FF4002010BD010402D54FF49D
:10493000801010BD410402D54FF4001010BD810459
:1049400002D54FF4800010BD000702D54FF40000DF
:1049500010BD4FF4803010BD5800002008E0FFFD6E
:10496000124B4FF4FA5141F288321B68B3FBF1F15C
:104970005143491E02D24FF000407047426B12F083
:10498000450FF6D0416B490703D5042181630846E2
:104990007047416BC90703D0012181630846704706
:1049A00040F2FF5181630020704700005800002052
:1049B0000E4B4FF4FA5141F288321B68B3FBF1F110
:1049C0005143491E02D24FF000407047426B12F033
:1049D000450FF6D0416B490703D504218163084692
:1049E000704740F2FF51816300207047580000205B
:1049F00030B51F4D4FF4FA5341F288342D68B5FBA2
:104A0000F3F363435B1E02D24FF0004030BD446BB2
:104A100014F0450FF6D0436B5B0703D50421816387
:104A2000084630BD436BDB0702D00121816303E000
:104A30000369DBB28B4201D0012030BD40F2FF514F
:104A40008163002100F01AF810F4604F04D0410493
:104A500006D54FF4005030BD000C1080002030BD52
:104A6000000402D54FF4805030BD4FF4803030BD8B
:104A700058000020006800F003007047084408B5A3
:104A800014300090006808BD70B511434268049E60
:104A9000DDE90554334347F6FF6619432943B24322
:104AA00021430A434260002070BD032101600020C1
:104AB0007047D0F88000704770B50A688260C4689B
:104AC000D1E90125D1E90336210B2A4333430903F8
:104AD0001A431143C160002070BD0968C0F88010FE
:104AE0000020704710B5064C01202070FCF726FE10
:104AF00018B9207820F001002070207810BD000047
:104B00003C00002070B5054602F0D9FA044603E0E7
:104B1000FCF714FE002806D002F0D1FA001BA842D0
:104B2000F6D34FF0FF3070BD10B5846BFDF721FA5E
:104B3000022827D0E06B406D012803D0206C406D27
:104B400001281CD1216840F2FF5088632068C16BA6
:104B500021F49D71C163A06B40F08040A0632046AA
:104B6000FEF7FAFB062801D0052805D12068FFF7DB
:104B700009FEA16B0843A063012084F8340020469D
:104B8000FEF7DAFA10BD10B5846B206B822809D1CC
:104B90002068FFF7F7FD28B1A16B0143A163204610
:104BA000FEF7CAFA2068012140F2FF52C36A23F0DF
:104BB0000803C3622068826384F834102046FEF73D
:104BC00031FE10BD70B5846B0025E06B00B1E5636C
:104BD000206C002816D12046FEF7BEFB0121A563FC
:104BE000062884F8341001D005280BD12068FFF77F
:104BF000C9FDA16B0843A063A06B0028204602D02A
:104C0000FEF75AFA70BDFEF797FA70BD806B006828
:104C1000C16B41F48071C163704770B5846B00252E
:104C2000206C00B12564E06B002816D12046FEF709
:104C300093FB0121A563062884F8341001D00528D0
:104C40000BD12068FFF79EFDA16B0843A063A06B0A
:104C50000028204602D0FEF72FFA70BDFEF76CFA4E
:104C600070BD2DE9F04F89B00E460446FDF70EFCED
:104C70000027009701970821834620683D46FFF7EB
:104C800035FC002835D1B4F8501020680904FFF72E
:104C9000F9FB00282DD14FF008084FF002094FF022
:104CA000010C421E3023CDE90228CDE90439CDE9BB
:104CB000067C206802A9FFF7B1FD2068FFF718FD08
:104CC000002816D1EA4640F22A472068416B394253
:104CD00012D1416B890204D5FFF7EBFE4AF825009B
:104CE0006D1CFDF7D3FBA0EB0B00401CEDD14FF08A
:104CF000004009B0BDE8F08F416B090703D5C0F84B
:104D000038800820F5E7416B890703D5C0F8389053
:104D10000220EEE7416B890603D520218163084616
:104D2000E7E740F2FF518163009800BA7060019894
:104D300000BA30600020DCE710B590B004460120D6
:104D4000ADF838002068FFF795FE002864D0606C4D
:104D5000032842D02068FFF79FFC00285AD1206822
:104D60000021FFF78BFE606704212068FFF786FEB5
:104D7000A06708212068FFF781FEE0670C2120680A
:104D8000FFF77CFE616CC4F88000032925D0206801
:104D90000EA9FFF7DEFC00283CD1606C03281CD074
:104DA000BDF83810216520680904FFF78AFC002847
:104DB00030D120680021FFF761FE60660421206881
:104DC000FFF75CFEA06608212068FFF757FEE0664B
:104DD0000C212068FFF752FE206704212068FFF7AE
:104DE0004DFE000DE06403A92046FEF7A6F9B4F8D5
:104DF0005000002302042068FFF736FC002809D188
:104E000004F1100007C88DE8070094E80F00FFF7D1
:104E10003BFE002010B010BD4FF08060FAE72DE996
:104E2000F8430025044600950068FFF791FB002831
:104E30001BD12068FFF7B4FB4FF080784FF6FF7668
:104E4000E0B14FF08057A5640098B04200F1010036
:104E500000901BD020680021FFF714FB20B92068C8
:104E60000021FFF729FB10B13846BDE8F883206820
:104E70000021FFF703FEC00FE6D020E00127A76462
:104E80000098B04200F10100009001D14046ECE7EB
:104E900020680021FFF7F6FA0028E6D120684FF0DD
:104EA0008041FFF709FB0028DFD120680021FFF7D0
:104EB000E5FDC10FE4D0400001D5676400E0656402
:104EC0000020D2E71CB5044600200090002101908C
:104ED0002068FFF7D3FD800102D54FF400601CBDB0
:104EE00069462046FFF7BDFE0028F8D10198C003AF
:104EF0000CD5B4F8501020680904FFF7C3FA002855
:104F0000EDD120680021FFF70AFB1CBD4FF0806047
:104F10001CBD1CB5044600200090002101902068B3
:104F2000FFF7ACFD800102D54FF400601CBD69465F
:104F30002046FFF796FE0028F8D1019840030CD5D3
:104F4000B4F8501020680904FFF79CFA0028EDD14E
:104F500020680221FFF7E3FA1CBD4FF080601CBD02
:104F60007FB50F4C05460120207002F09AF8A0B1E1
:104F7000FCF7F0FB18B92846FFF7B4FD2070207845
:104F800001280AD0606840B9064B0FCB8DE80F00AE
:104F90000021684602F04EF96060207804B070BDD0
:104FA0003C0000203C970008144810B588B0144617
:104FB0000078C00702D0032008B010BD39B1012924
:104FC00007D002290BD0032910D00420F4E70020D9
:104FD000F2E76846FCF7ACFB069900200CE0684657
:104FE000FCF7A6FB079900202180E5E76846FCF75F
:104FF0009FFB07990020490A2160DDE73C00002063
:105000002DE9FE4F47F23055984601271446894650
:105010002846FFF777FD00283BDB1F4E5FEA8970CB
:1050200003D0AB46B24600252DE042462146484615
:10503000FCF7B0FB68BB71682A46684602F00EF9BF
:10504000DDE90010102924D1012821D021E01348E6
:1050500001222146641CFCF79DFB060015D1DAF8FD
:1050600004105A46684602F0F9F8DDE900101029EC
:1050700008D1012806D1420208494846FBF753F9F6
:1050800009F500796D1C4545E1D3454501D106B9C7
:1050900000273846BDE8FE8F3C000020C8270120CD
:1050A000FFF720BD2DE9FE4F47F230579846012605
:1050B000144689463846FFF725FD002848DB264D73
:1050C0005FEA897003D0BB46AA4600253AE0424613
:1050D00021464846FCF776FBD0BB69683C463A4619
:1050E000684602F0BBF8DDE90010102930D1022833
:1050F0002ED101F0E4FF044403E000BFFCF71EFBE7
:1051000028B301F0DCFFA042F8D321E013480122CC
:105110002146641CFCF756FB070015D1DAF8041091
:105120005A46684602F09AF8DDE90010102908D1C5
:10513000022806D1020209494846FBF7F4F809F5AE
:1051400000796D1C4545E1D3454501D107B90026DD
:105150003046BDE8FE8F00003C000020C82701203B
:10516000502010B572B680F31188BFF34F8FBFF394
:105170006F8F62B604F080F818B104494FF0805088
:105180000860002080F3118810BD000004ED00E0ED
:1051900070B5B4B0302121A8FBF7DEF814212DA89A
:1051A000FBF7DAF884216846FBF7D6F81E48016859
:1051B00041F080510160006800F0805032901B483F
:1051C000016841F44041016000680225042300F4B5
:1051D000404032900120D824820501040926CDE9FF
:1051E0002752CDE9210129A921A881E87800FDF7FE
:1051F000C7FDFDF70BFAEA024FF4A05100242F94EB
:10520000CDE930120F20CDE92D0507212DA8FDF79E
:10521000B1FC074816941F94209400906846FDF74F
:105220002BFA34B070BD00004038024000700040DE
:105230000008A000104A30B51048146800210F4B38
:1052400044F470041460083305680D4A0D4C45F0B1
:105250000105056019600368051D1340074A0360D6
:105260000C322C600568E305034C25F480250560AD
:10527000803C1160236030BD88ED00E000380240C2
:10528000FFFFF6FE103000240148FEF76ABC000064
:10529000602501200148FEF764BC00006025012064
:1052A0000148FEF75EBC0000602501200148FEF7C2
:1052B00058BC0000E0260120F0B5274B4FF0804E8F
:1052C000264D02689842264E264F274C09D070453D
:1052D00007D0A84205D0B04203D0B84201D0A042C6
:1052E00005D1D1F804C022F070024CEA02029842C3
:1052F0001BD0704519D0A84217D0B04215D0B84283
:1053000013D0A04211D0194DA8420ED0184DA8427A
:105310000BD0184DA84208D0174DA84205D0174D04
:10532000A84202D0164DA84203D1CD6822F44072A3
:105330002A434D6922F080022A43026098428A681B
:10534000C2620A68826201D0A04201D10969016388
:1053500001214161F0BD0000000001400004004057
:1053600000080040000C00400004014000400140E3
:10537000004401400048014000180040001C00406B
:105380000020004042EA032283680A4323F47F415D
:105390000A4382607047826822F070020A4342F03A
:1053A00007018160704710B5036A046A23F00A039D
:1053B00024F00104046284690B4324F0F00141EA03
:1053C00002118161036210BD10B5036A23F010035E
:1053D00003628369046A23F4704324F0A00443EA5F
:1053E0000232826144EA0111016210BD90F824107A
:1053F000C90706D00168836A4A6822F400321A435A
:105400004A6090F82410890706D50168C36A4A6883
:1054100022F480321A434A6090F82410490706D5D6
:105420000168036B4A6822F480221A434A6090F8AC
:105430002410090706D50168436B4A6822F400422C
:105440001A434A6090F82410C90606D50168836B98
:105450008A6822F480521A438A6090F824108906E0
:1054600006D50168C36B8A6822F400521A438A6029
:1054700090F82410490611D50168036C4A6822F49B
:1054800080121A434A60016CB1F5801F06D1016891
:10549000436C4A6822F4C0021A434A6090F8241010
:1054A000090606D50168826C486820F40020104384
:1054B0004860704738B500250446C567FCF7E6FF2D
:1054C00003462068006800070BD56FF07E4000900F
:1054D000002220464FF4001100F0BEF908B103206D
:1054E00038BD2020606784F87050A067002038BD68
:1054F00010B5806B0021A0F85A10A0F85210FEF7EA
:10550000FEFB10BD70B5846B00252168606FA66F2F
:105510008968090606D5212804D1A4F852502046EE
:1055200000F068F820688068400606D5222E04D175
:10553000A4F85A50204600F04DF8E06F40F01000FB
:10554000E0672046FEF7DBFB70BD10B5C169806BDC
:10555000B1F5807F13D00021A0F85A1020220168F5
:105560000B6823F480730B6001688B6823F00103E0
:105570008B6001688B6823F040038B608267FEF7C5
:1055800041FD10BD10B5806BFEF75CFD10BD10B580
:10559000C169806BB1F5807F14D00021A0F8521052
:1055A00001688A6822F080028A6001680A6842F015
:1055B00040020A60416F232902D02021416710BDBB
:1055C0002221FBE7FEF78AFD10BD10B5806BFEF7C8
:1055D00086FD10BD10B50168202200230C6824F45C
:1055E00090740C6001688C6824F001048C60826700
:1055F000036610BD016820220B6823F0C0030B6016
:10560000426770472DE9F04104468068DFF818C210
:10561000864F2368D4E90452E16928431E680025B7
:105620000A438349104306EA0C0606431E604FF402
:1056300000422068E668436823F4405333434360E4
:105640002368A669206AD3F808C030432CF430667A
:1056500006439E602068B8420AD1086810F0030033
:1056600052D001287BD002287AD003286ED186E060
:10567000704B98420AD1086810F00C0079D00428C9
:105680007BD0082877D00C2860D178E06A4B98420C
:105690000AD1086810F030006BD010286DD0202897
:1056A00069D0302852D16AE0644B98420AD1086828
:1056B00010F0C0005DD040285FD080285BD0C028AB
:1056C00044D15CE05E4B98420DD1086810F4407004
:1056D0004FD0B0F5807F50D0B0F5007F4BD0B0F503
:1056E000407F33D14BE0574B98420FD1086810F4FC
:1056F000406009D0B0F5806F3FD0B0F5006F3AD070
:10570000B0F5406F22D13AE0012120E04E4B9842A3
:105710000DD1086810F440502BD0B0F5805F2CD02C
:10572000B0F5005F27D0B0F5405F0FD127E0474BC1
:1057300098420BD1086810F440401AD0B0F5804F61
:105740001BD0904217D0B0F5404F18D01021E0691F
:105750004FF6EF76904238D109295DD202E00CE095
:1057600009E006E0DFE801F00D1027582A585858E4
:105770002D000021EBE70221E9E70421E7E70821FA
:10578000E5E7FDF7ADFA01E0FDF7BAFA0146D4F816
:105790000400490001EB5001B1FBF0F080B2A0F130
:1057A0001001B14238D84FF6F0732168C0F34202BD
:1057B0001840104324E026496068EBE7FDF7B0FA93
:1057C000E4E760684FF48031E4E7092924D2DFE898
:1057D00001F0050819231C2323231F00FDF780FA7D
:1057E00001E0FDF78DFA0146D4F8040001EB500109
:1057F000B1FBF0F080B2A0F11001B1420CD82168E9
:10580000C8600AE013496068F0E7FDF789FAEAE743
:10581000606802EB5001EBE701250020206660661E
:105820002846BDE8F0810000F369FFEF0010014059
:10583000903802400044004000480040004C0040C6
:10584000005000400014014000780040007C0040FF
:105850000048E8010024F4002DE9F041984617467D
:105860000E460446069D08E0681C06D0FCF70EFEB6
:10587000A0EB0800A8420BD855B12068C06936EAF1
:10588000000017D00020B842EED00020BDE8F08123
:105890002168202000220B6823F4D0730B6021685C
:1058A0008B6823F001038B606067A067032084F896
:1058B0007020EBE70120E6E70148FEF721BA00007F
:1058C000A0250120FEE770B5A2F1080101712C3A74
:1058D0000B0A43710C0C84710D0EC57180F82820E1
:1058E000160A110C80F82960130E80F82A1080F82F
:1058F0002B30002070BD00000FB41CB50246002004
:1059000007AC00290BD0491ECDE90021054B6A46A2
:105910002146069800F04CF8009A002111701CBC3A
:105920005DF814FB055B0008090700284FEA1161C8
:1059300004DB00F1E02080F80014704700F00F0055
:1059400000F1E02080F8141D704710B52DED028B9A
:10595000B1EEC08A18EE100A20F00040C0F1FF40FE
:10596000C00F0AD010EE100A20F00040C0F1FF4036
:10597000C00F04BF012000F015F8B0EE480ABDECDE
:10598000028B10BD02E008C8121F08C1002AFAD11C
:1059900070477047002001E001C1121F002AFBD1AF
:1059A000704700000149086070470000C4000020F3
:1059B0002DE9FF4F89B09B460446002506E02528C7
:1059C0000BD05A460B999047641C6D1C2078002818
:1059D000F5D10DB02846BDE8F08F0027B84601226A
:1059E000474900E0074314F8013F203B02FA03F067
:1059F0000842F7D120782E2819D114F8010F47F06A
:105A000004072A280ED06FF02F022078A0F1300171
:105A100009290CD808EB880102EB410100EB0108D1
:105A2000641CF2E70A98641C50F8048B0A902078F2
:105A30000028CED0642808D0692806D075281ED04A
:105A40005A460B9990476D1C58E00A994FF00A0985
:105A500001C90A91002802DA40422D2102E03905ED
:105A600004D52B218DF82010012103E0F90704D083
:105A70002021F7E78A4608AE0DE00021FAE70A99EF
:105A80004FF00A0901C90A91F7E74946FAF76FFC96
:105A9000303106F8011D0028F7D1ADEB060000F10A
:105AA0002009780701D44FF00108C84502DDA8EBB2
:105AB000090000E000208046002706E008A85A46BA
:105AC000C05D0B9990476D1C7F1C5745F6DB04E0C9
:105AD00030205A460B9990476D1CB8F10001A8F18F
